{"contracts/ShillCore.sol":{"ShillCore":{"abi":[{"inputs":[],"stateMutability":"nonpayable","type":"constructor"},{"inputs":[{"internalType":"contract Token","name":"token","type":"address"}],"name":"claim","outputs":[],"stateMutability":"nonpayable","type":"function"},{"inputs":[{"internalType":"contract Token","name":"token","type":"address"},{"internalType":"address","name":"shiller","type":"address"}],"name":"claimable","outputs":[{"internalType":"uint256","name":"","type":"uint256"}],"stateMutability":"view","type":"function"},{"inputs":[{"components":[{"internalType":"contract Token","name":"token","type":"address"},{"internalType":"address[]","name":"shillers","type":"address[]"},{"internalType":"uint256[]","name":"rewards","type":"uint256[]"}],"internalType":"struct ShillCore.EpochResults[]","name":"results","type":"tuple[]"}],"name":"closeEpoch","outputs":[],"stateMutability":"nonpayable","type":"function"},{"inputs":[{"internalType":"string","name":"name","type":"string"},{"internalType":"string","name":"symbol","type":"string"},{"internalType":"uint256","name":"supply","type":"uint256"},{"internalType":"string","name":"handle","type":"string"},{"internalType":"uint256","name":"tokenLiquidity","type":"uint256"},{"internalType":"uint256","name":"shillReserve","type":"uint256"}],"name":"createTokenAndStartCampaign","outputs":[],"stateMutability":"payable","type":"function"},{"inputs":[{"internalType":"contract Token","name":"token","type":"address"}],"name":"launch","outputs":[],"stateMutability":"nonpayable","type":"function"}],"evm":{"bytecode":{"linkReferences":{},"object":"608060405234801561001057600080fd5b50336000806101000a81548173ffffffffffffffffffffffffffffffffffffffff021916908373ffffffffffffffffffffffffffffffffffffffff16021790555061295d806100606000396000f3fe608060405260043610620000505760003560e01c80631e83409a1462000055578063214013ca146200008357806321dead7914620000b1578063c8a84f8714620000df578063d4570c1c14620000ff575b600080fd5b3480156200006257600080fd5b506200008160048036038101906200007b91906200087f565b62000143565b005b3480156200009057600080fd5b50620000af6004803603810190620000a991906200087f565b62000314565b005b348015620000be57600080fd5b50620000dd6004803603810190620000d791906200091f565b62000317565b005b620000fd6004803603810190620000f7919062000b6b565b620005bf565b005b3480156200010c57600080fd5b506200012b600480360381019062000125919062000c9b565b6200075d565b6040516200013a919062000cf3565b60405180910390f35b6000600360008373ffffffffffffffffffffffffffffffffffffffff1673ffffffffffffffffffffffffffffffffffffffff16815260200190815260200160002060003373ffffffffffffffffffffffffffffffffffffffff1673ffffffffffffffffffffffffffffffffffffffff168152602001908152602001600020549050600081116200020a576040517f08c379a0000000000000000000000000000000000000000000000000000000008152600401620002019062000d71565b60405180910390fd5b8173ffffffffffffffffffffffffffffffffffffffff1663a9059cbb33836040518363ffffffff1660e01b81526004016200024792919062000da4565b6020604051808303816000875af115801562000267573d6000803e3d6000fd5b505050506040513d601f19601f820116820180604052508101906200028d919062000e0e565b506000600360008473ffffffffffffffffffffffffffffffffffffffff1673ffffffffffffffffffffffffffffffffffffffff16815260200190815260200160002060003373ffffffffffffffffffffffffffffffffffffffff1673ffffffffffffffffffffffffffffffffffffffff168152602001908152602001600020819055505050565b50565b60008054906101000a900473ffffffffffffffffffffffffffffffffffffffff1673ffffffffffffffffffffffffffffffffffffffff163373ffffffffffffffffffffffffffffffffffffffff1614620003a8576040517f08c379a00000000000000000000000000000000000000000000000000000000081526004016200039f9062000eb6565b60405180910390fd5b60005b82829050811015620005ba576000838383818110620003cf57620003ce62000ed8565b5b9050602002810190620003e3919062000f16565b6000016020810190620003f791906200087f565b905060005b84848481811062000412576200041162000ed8565b5b905060200281019062000426919062000f16565b806020019062000437919062000f41565b9050811015620005aa57600085858581811062000459576200045862000ed8565b5b90506020028101906200046d919062000f16565b80602001906200047e919062000f41565b8381811062000492576200049162000ed8565b5b9050602002016020810190620004a9919062000fad565b90506000868686818110620004c357620004c262000ed8565b5b9050602002810190620004d7919062000f16565b8060400190620004e8919062000fdf565b84818110620004fc57620004fb62000ed8565b5b90506020020135905080600360008673ffffffffffffffffffffffffffffffffffffffff1673ffffffffffffffffffffffffffffffffffffffff16815260200190815260200160002060008473ffffffffffffffffffffffffffffffffffffffff1673ffffffffffffffffffffffffffffffffffffffff16815260200190815260200160002060008282546200059391906200107a565b9250508190555050508080600101915050620003fc565b50508080600101915050620003ab565b505050565b6000878787604051620005d290620007e4565b620005e0939291906200112d565b604051809103906000f080158015620005fd573d6000803e3d6000fd5b5090506000600160008373ffffffffffffffffffffffffffffffffffffffff1673ffffffffffffffffffffffffffffffffffffffff16815260200190815260200160002090508173ffffffffffffffffffffffffffffffffffffffff166306fdde036040518163ffffffff1660e01b8152600401600060405180830381865afa1580156200068f573d6000803e3d6000fd5b505050506040513d6000823e3d601f19601f82011682018060405250810190620006ba9190620011f6565b816000019081620006cc91906200147d565b508585826001019182620006e29291906200156f565b50600081600201600001819055508281600201600101819055506000600260008473ffffffffffffffffffffffffffffffffffffffff1673ffffffffffffffffffffffffffffffffffffffff168152602001908152602001600020905034816000018190555084816001018190555050505050505050505050565b6000600360008473ffffffffffffffffffffffffffffffffffffffff1673ffffffffffffffffffffffffffffffffffffffff16815260200190815260200160002060008373ffffffffffffffffffffffffffffffffffffffff1673ffffffffffffffffffffffffffffffffffffffff16815260200190815260200160002054905092915050565b6112d3806200165583390190565b6000604051905090565b600080fd5b600080fd5b600073ffffffffffffffffffffffffffffffffffffffff82169050919050565b6000620008338262000806565b9050919050565b6000620008478262000826565b9050919050565b62000859816200083a565b81146200086557600080fd5b50565b60008135905062000879816200084e565b92915050565b600060208284031215620008985762000897620007fc565b5b6000620008a88482850162000868565b91505092915050565b600080fd5b600080fd5b600080fd5b60008083601f840112620008d957620008d8620008b1565b5b8235905067ffffffffffffffff811115620008f957620008f8620008b6565b5b602083019150836020820283011115620009185762000917620008bb565b5b9250929050565b60008060208385031215620009395762000938620007fc565b5b600083013567ffffffffffffffff8111156200095a576200095962000801565b5b6200096885828601620008c0565b92509250509250929050565b600080fd5b6000601f19601f8301169050919050565b7f4e487b7100000000000000000000000000000000000000000000000000000000600052604160045260246000fd5b620009c48262000979565b810181811067ffffffffffffffff82111715620009e657620009e56200098a565b5b80604052505050565b6000620009fb620007f2565b905062000a098282620009b9565b919050565b600067ffffffffffffffff82111562000a2c5762000a2b6200098a565b5b62000a378262000979565b9050602081019050919050565b82818337600083830152505050565b600062000a6a62000a648462000a0e565b620009ef565b90508281526020810184848401111562000a895762000a8862000974565b5b62000a9684828562000a44565b509392505050565b600082601f83011262000ab65762000ab5620008b1565b5b813562000ac884826020860162000a53565b91505092915050565b6000819050919050565b62000ae68162000ad1565b811462000af257600080fd5b50565b60008135905062000b068162000adb565b92915050565b60008083601f84011262000b255762000b24620008b1565b5b8235905067ffffffffffffffff81111562000b455762000b44620008b6565b5b60208301915083600182028301111562000b645762000b63620008bb565b5b9250929050565b600080600080600080600060c0888a03121562000b8d5762000b8c620007fc565b5b600088013567ffffffffffffffff81111562000bae5762000bad62000801565b5b62000bbc8a828b0162000a9e565b975050602088013567ffffffffffffffff81111562000be05762000bdf62000801565b5b62000bee8a828b0162000a9e565b965050604062000c018a828b0162000af5565b955050606088013567ffffffffffffffff81111562000c255762000c2462000801565b5b62000c338a828b0162000b0c565b9450945050608062000c488a828b0162000af5565b92505060a062000c5b8a828b0162000af5565b91505092959891949750929550565b62000c758162000826565b811462000c8157600080fd5b50565b60008135905062000c958162000c6a565b92915050565b6000806040838503121562000cb55762000cb4620007fc565b5b600062000cc58582860162000868565b925050602062000cd88582860162000c84565b9150509250929050565b62000ced8162000ad1565b82525050565b600060208201905062000d0a600083018462000ce2565b92915050565b600082825260208201905092915050565b7f4e6f207265776172647320746f20636c61696d00000000000000000000000000600082015250565b600062000d5960138362000d10565b915062000d668262000d21565b602082019050919050565b6000602082019050818103600083015262000d8c8162000d4a565b9050919050565b62000d9e8162000826565b82525050565b600060408201905062000dbb600083018562000d93565b62000dca602083018462000ce2565b9392505050565b60008115159050919050565b62000de88162000dd1565b811462000df457600080fd5b50565b60008151905062000e088162000ddd565b92915050565b60006020828403121562000e275762000e26620007fc565b5b600062000e378482850162000df7565b91505092915050565b7f4f6e6c7920746865206f776e65722063616e20636c6f736520616e2065706f6360008201527f6800000000000000000000000000000000000000000000000000000000000000602082015250565b600062000e9e60218362000d10565b915062000eab8262000e40565b604082019050919050565b6000602082019050818103600083015262000ed18162000e8f565b9050919050565b7f4e487b7100000000000000000000000000000000000000000000000000000000600052603260045260246000fd5b600080fd5b600080fd5b600080fd5b60008235600160600383360303811262000f355762000f3462000f07565b5b80830191505092915050565b6000808335600160200384360303811262000f615762000f6062000f07565b5b80840192508235915067ffffffffffffffff82111562000f865762000f8562000f0c565b5b60208301925060208202360383131562000fa55762000fa462000f11565b5b509250929050565b60006020828403121562000fc65762000fc5620007fc565b5b600062000fd68482850162000c84565b91505092915050565b6000808335600160200384360303811262000fff5762000ffe62000f07565b5b80840192508235915067ffffffffffffffff82111562001024576200102362000f0c565b5b60208301925060208202360383131562001043576200104262000f11565b5b509250929050565b7f4e487b7100000000000000000000000000000000000000000000000000000000600052601160045260246000fd5b6000620010878262000ad1565b9150620010948362000ad1565b9250828201905080821115620010af57620010ae6200104b565b5b92915050565b600081519050919050565b60005b83811015620010e0578082015181840152602081019050620010c3565b60008484015250505050565b6000620010f982620010b5565b62001105818562000d10565b935062001117818560208601620010c0565b620011228162000979565b840191505092915050565b60006060820190508181036000830152620011498186620010ec565b905081810360208301526200115f8185620010ec565b905062001170604083018462000ce2565b949350505050565b60006200118f620011898462000a0e565b620009ef565b905082815260208101848484011115620011ae57620011ad62000974565b5b620011bb848285620010c0565b509392505050565b600082601f830112620011db57620011da620008b1565b5b8151620011ed84826020860162001178565b91505092915050565b6000602082840312156200120f576200120e620007fc565b5b600082015167ffffffffffffffff81111562001230576200122f62000801565b5b6200123e84828501620011c3565b91505092915050565b7f4e487b7100000000000000000000000000000000000000000000000000000000600052602260045260246000fd5b600060028204905060018216806200128f57607f821691505b602082108103620012a557620012a462001247565b5b50919050565b60008190508160005260206000209050919050565b60006020601f8301049050919050565b600082821b905092915050565b6000600883026200130f7fffffffffffffffffffffffffffffffffffffffffffffffffffffffffffffffff82620012d0565b6200131b8683620012d0565b95508019841693508086168417925050509392505050565b6000819050919050565b60006200135e62001358620013528462000ad1565b62001333565b62000ad1565b9050919050565b6000819050919050565b6200137a836200133d565b62001392620013898262001365565b848454620012dd565b825550505050565b600090565b620013a96200139a565b620013b68184846200136f565b505050565b5b81811015620013de57620013d26000826200139f565b600181019050620013bc565b5050565b601f8211156200142d57620013f781620012ab565b6200140284620012c0565b8101602085101562001412578190505b6200142a6200142185620012c0565b830182620013bb565b50505b505050565b600082821c905092915050565b6000620014526000198460080262001432565b1980831691505092915050565b60006200146d83836200143f565b9150826002028217905092915050565b6200148882620010b5565b67ffffffffffffffff811115620014a457620014a36200098a565b5b620014b0825462001276565b620014bd828285620013e2565b600060209050601f831160018114620014f55760008415620014e0578287015190505b620014ec85826200145f565b8655506200155c565b601f1984166200150586620012ab565b60005b828110156200152f5784890151825560018201915060208501945060208101905062001508565b868310156200154f57848901516200154b601f8916826200143f565b8355505b6001600288020188555050505b505050505050565b600082905092915050565b6200157b838362001564565b67ffffffffffffffff8111156200159757620015966200098a565b5b620015a3825462001276565b620015b0828285620013e2565b6000601f831160018114620015e45760008415620015cf578287013590505b620015db85826200145f565b8655506200164b565b601f198416620015f486620012ab565b60005b828110156200161e57848901358255600182019150602085019450602081019050620015f7565b868310156200163e57848901356200163a601f8916826200143f565b8355505b6001600288020188555050505b5050505050505056fe60806040523480156200001157600080fd5b50604051620012d3380380620012d3833981810160405281019062000037919062000328565b826003908162000048919062000603565b5081600490816200005a919062000603565b506012600560006101000a81548160ff021916908360ff16021790555080600160003373ffffffffffffffffffffffffffffffffffffffff1673ffffffffffffffffffffffffffffffffffffffff1681526020019081526020016000206000828254620000c8919062000719565b9250508190555080600080828254620000e2919062000719565b925050819055503373ffffffffffffffffffffffffffffffffffffffff16600073ffffffffffffffffffffffffffffffffffffffff167fddf252ad1be2c89b69c2b068fc378daa952ba7f163c4a11628f55a4df523b3ef8360405162000149919062000765565b60405180910390a350505062000782565b6000604051905090565b600080fd5b600080fd5b600080fd5b600080fd5b6000601f19601f8301169050919050565b7f4e487b7100000000000000000000000000000000000000000000000000000000600052604160045260246000fd5b620001c38262000178565b810181811067ffffffffffffffff82111715620001e557620001e462000189565b5b80604052505050565b6000620001fa6200015a565b9050620002088282620001b8565b919050565b600067ffffffffffffffff8211156200022b576200022a62000189565b5b620002368262000178565b9050602081019050919050565b60005b838110156200026357808201518184015260208101905062000246565b60008484015250505050565b60006200028662000280846200020d565b620001ee565b905082815260208101848484011115620002a557620002a462000173565b5b620002b284828562000243565b509392505050565b600082601f830112620002d257620002d16200016e565b5b8151620002e48482602086016200026f565b91505092915050565b6000819050919050565b6200030281620002ed565b81146200030e57600080fd5b50565b6000815190506200032281620002f7565b92915050565b60008060006060848603121562000344576200034362000164565b5b600084015167ffffffffffffffff81111562000365576200036462000169565b5b6200037386828701620002ba565b935050602084015167ffffffffffffffff81111562000397576200039662000169565b5b620003a586828701620002ba565b9250506040620003b88682870162000311565b9150509250925092565b600081519050919050565b7f4e487b7100000000000000000000000000000000000000000000000000000000600052602260045260246000fd5b600060028204905060018216806200041557607f821691505b6020821081036200042b576200042a620003cd565b5b50919050565b60008190508160005260206000209050919050565b60006020601f8301049050919050565b600082821b905092915050565b600060088302620004957fffffffffffffffffffffffffffffffffffffffffffffffffffffffffffffffff8262000456565b620004a1868362000456565b95508019841693508086168417925050509392505050565b6000819050919050565b6000620004e4620004de620004d884620002ed565b620004b9565b620002ed565b9050919050565b6000819050919050565b6200050083620004c3565b620005186200050f82620004eb565b84845462000463565b825550505050565b600090565b6200052f62000520565b6200053c818484620004f5565b505050565b5b8181101562000564576200055860008262000525565b60018101905062000542565b5050565b601f821115620005b3576200057d8162000431565b620005888462000446565b8101602085101562000598578190505b620005b0620005a78562000446565b83018262000541565b50505b505050565b600082821c905092915050565b6000620005d860001984600802620005b8565b1980831691505092915050565b6000620005f38383620005c5565b9150826002028217905092915050565b6200060e82620003c2565b67ffffffffffffffff8111156200062a576200062962000189565b5b620006368254620003fc565b6200064382828562000568565b600060209050601f8311600181146200067b576000841562000666578287015190505b620006728582620005e5565b865550620006e2565b601f1984166200068b8662000431565b60005b82811015620006b5578489015182556001820191506020850194506020810190506200068e565b86831015620006d55784890151620006d1601f891682620005c5565b8355505b6001600288020188555050505b505050505050565b7f4e487b7100000000000000000000000000000000000000000000000000000000600052601160045260246000fd5b60006200072682620002ed565b91506200073383620002ed565b92508282019050808211156200074e576200074d620006ea565b5b92915050565b6200075f81620002ed565b82525050565b60006020820190506200077c600083018462000754565b92915050565b610b4180620007926000396000f3fe608060405234801561001057600080fd5b50600436106100935760003560e01c8063313ce56711610066578063313ce5671461013457806370a082311461015257806395d89b4114610182578063a9059cbb146101a0578063dd62ed3e146101d057610093565b806306fdde0314610098578063095ea7b3146100b657806318160ddd146100e657806323b872dd14610104575b600080fd5b6100a0610200565b6040516100ad91906107c2565b60405180910390f35b6100d060048036038101906100cb919061087d565b61028e565b6040516100dd91906108d8565b60405180910390f35b6100ee610380565b6040516100fb9190610902565b60405180910390f35b61011e6004803603810190610119919061091d565b610386565b60405161012b91906108d8565b60405180910390f35b61013c610537565b604051610149919061098c565b60405180910390f35b61016c600480360381019061016791906109a7565b61054a565b6040516101799190610902565b60405180910390f35b61018a610562565b60405161019791906107c2565b60405180910390f35b6101ba60048036038101906101b5919061087d565b6105f0565b6040516101c791906108d8565b60405180910390f35b6101ea60048036038101906101e591906109d4565b61070d565b6040516101f79190610902565b60405180910390f35b6003805461020d90610a43565b80601f016020809104026020016040519081016040528092919081815260200182805461023990610a43565b80156102865780601f1061025b57610100808354040283529160200191610286565b820191906000526020600020905b81548152906001019060200180831161026957829003601f168201915b505050505081565b600081600260003373ffffffffffffffffffffffffffffffffffffffff1673ffffffffffffffffffffffffffffffffffffffff16815260200190815260200160002060008573ffffffffffffffffffffffffffffffffffffffff1673ffffffffffffffffffffffffffffffffffffffff168152602001908152602001600020819055508273ffffffffffffffffffffffffffffffffffffffff163373ffffffffffffffffffffffffffffffffffffffff167f8c5be1e5ebec7d5bd14f71427d1e84f3dd0314c0f7b2291e5b200ac8c7c3b9258460405161036e9190610902565b60405180910390a36001905092915050565b60005481565b600081600260008673ffffffffffffffffffffffffffffffffffffffff1673ffffffffffffffffffffffffffffffffffffffff16815260200190815260200160002060003373ffffffffffffffffffffffffffffffffffffffff1673ffffffffffffffffffffffffffffffffffffffff16815260200190815260200160002060008282546104149190610aa3565b9250508190555081600160008673ffffffffffffffffffffffffffffffffffffffff1673ffffffffffffffffffffffffffffffffffffffff168152602001908152602001600020600082825461046a9190610aa3565b9250508190555081600160008573ffffffffffffffffffffffffffffffffffffffff1673ffffffffffffffffffffffffffffffffffffffff16815260200190815260200160002060008282546104c09190610ad7565b925050819055508273ffffffffffffffffffffffffffffffffffffffff168473ffffffffffffffffffffffffffffffffffffffff167fddf252ad1be2c89b69c2b068fc378daa952ba7f163c4a11628f55a4df523b3ef846040516105249190610902565b60405180910390a3600190509392505050565b600560009054906101000a900460ff1681565b60016020528060005260406000206000915090505481565b6004805461056f90610a43565b80601f016020809104026020016040519081016040528092919081815260200182805461059b90610a43565b80156105e85780601f106105bd576101008083540402835291602001916105e8565b820191906000526020600020905b8154815290600101906020018083116105cb57829003601f168201915b505050505081565b600081600160003373ffffffffffffffffffffffffffffffffffffffff1673ffffffffffffffffffffffffffffffffffffffff16815260200190815260200160002060008282546106419190610aa3565b9250508190555081600160008573ffffffffffffffffffffffffffffffffffffffff1673ffffffffffffffffffffffffffffffffffffffff16815260200190815260200160002060008282546106979190610ad7565b925050819055508273ffffffffffffffffffffffffffffffffffffffff163373ffffffffffffffffffffffffffffffffffffffff167fddf252ad1be2c89b69c2b068fc378daa952ba7f163c4a11628f55a4df523b3ef846040516106fb9190610902565b60405180910390a36001905092915050565b6002602052816000526040600020602052806000526040600020600091509150505481565b600081519050919050565b600082825260208201905092915050565b60005b8381101561076c578082015181840152602081019050610751565b60008484015250505050565b6000601f19601f8301169050919050565b600061079482610732565b61079e818561073d565b93506107ae81856020860161074e565b6107b781610778565b840191505092915050565b600060208201905081810360008301526107dc8184610789565b905092915050565b600080fd5b600073ffffffffffffffffffffffffffffffffffffffff82169050919050565b6000610814826107e9565b9050919050565b61082481610809565b811461082f57600080fd5b50565b6000813590506108418161081b565b92915050565b6000819050919050565b61085a81610847565b811461086557600080fd5b50565b60008135905061087781610851565b92915050565b60008060408385031215610894576108936107e4565b5b60006108a285828601610832565b92505060206108b385828601610868565b9150509250929050565b60008115159050919050565b6108d2816108bd565b82525050565b60006020820190506108ed60008301846108c9565b92915050565b6108fc81610847565b82525050565b600060208201905061091760008301846108f3565b92915050565b600080600060608486031215610936576109356107e4565b5b600061094486828701610832565b935050602061095586828701610832565b925050604061096686828701610868565b9150509250925092565b600060ff82169050919050565b61098681610970565b82525050565b60006020820190506109a1600083018461097d565b92915050565b6000602082840312156109bd576109bc6107e4565b5b60006109cb84828501610832565b91505092915050565b600080604083850312156109eb576109ea6107e4565b5b60006109f985828601610832565b9250506020610a0a85828601610832565b9150509250929050565b7f4e487b7100000000000000000000000000000000000000000000000000000000600052602260045260246000fd5b60006002820490506001821680610a5b57607f821691505b602082108103610a6e57610a6d610a14565b5b50919050565b7f4e487b7100000000000000000000000000000000000000000000000000000000600052601160045260246000fd5b6000610aae82610847565b9150610ab983610847565b9250828203905081811115610ad157610ad0610a74565b5b92915050565b6000610ae282610847565b9150610aed83610847565b9250828201905080821115610b0557610b04610a74565b5b9291505056fea26469706673582212200403747db97a86d693c42fb1456965baa8a496a14ada8bad9eabf28af9ed2e0064736f6c63430008180033a264697066735822122018d1d697f6b887446dcbc5f273ba5e8b0bb6e1f14e0579cad3a116afb8061ec264736f6c63430008180033","opcodes":"PUSH1 0x80 PUSH1 0x40 MSTORE CALLVALUE DUP1 ISZERO PUSH2 0x10 JUMPI PUSH1 0x0 DUP1 REVERT JUMPDEST POP CALLER PUSH1 0x0 DUP1 PUSH2 0x100 EXP DUP2 SLOAD DUP2 PUSH20 0xFFFFFFFFFFFFFFFFFFFFFFFFFFFFFFFFFFFFFFFF MUL NOT AND SWAP1 DUP4 PUSH20 0xFFFFFFFFFFFFFFFFFFFFFFFFFFFFFFFFFFFFFFFF AND MUL OR SWAP1 SSTORE POP PUSH2 0x295D DUP1 PUSH2 0x60 PUSH1 0x0 CODECOPY PUSH1 0x0 RETURN INVALID PUSH1 0x80 PUSH1 0x40 MSTORE PUSH1 0x4 CALLDATASIZE LT PUSH3 0x50 JUMPI PUSH1 0x0 CALLDATALOAD PUSH1 0xE0 SHR DUP1 PUSH4 0x1E83409A EQ PUSH3 0x55 JUMPI DUP1 PUSH4 0x214013CA EQ PUSH3 0x83 JUMPI DUP1 PUSH4 0x21DEAD79 EQ PUSH3 0xB1 JUMPI DUP1 PUSH4 0xC8A84F87 EQ PUSH3 0xDF JUMPI DUP1 PUSH4 0xD4570C1C EQ PUSH3 0xFF JUMPI JUMPDEST PUSH1 0x0 DUP1 REVERT JUMPDEST CALLVALUE DUP1 ISZERO PUSH3 0x62 JUMPI PUSH1 0x0 DUP1 REVERT JUMPDEST POP PUSH3 0x81 PUSH1 0x4 DUP1 CALLDATASIZE SUB DUP2 ADD SWAP1 PUSH3 0x7B SWAP2 SWAP1 PUSH3 0x87F JUMP JUMPDEST PUSH3 0x143 JUMP JUMPDEST STOP JUMPDEST CALLVALUE DUP1 ISZERO PUSH3 0x90 JUMPI PUSH1 0x0 DUP1 REVERT JUMPDEST POP PUSH3 0xAF PUSH1 0x4 DUP1 CALLDATASIZE SUB DUP2 ADD SWAP1 PUSH3 0xA9 SWAP2 SWAP1 PUSH3 0x87F JUMP JUMPDEST PUSH3 0x314 JUMP JUMPDEST STOP JUMPDEST CALLVALUE DUP1 ISZERO PUSH3 0xBE JUMPI PUSH1 0x0 DUP1 REVERT JUMPDEST POP PUSH3 0xDD PUSH1 0x4 DUP1 CALLDATASIZE SUB DUP2 ADD SWAP1 PUSH3 0xD7 SWAP2 SWAP1 PUSH3 0x91F JUMP JUMPDEST PUSH3 0x317 JUMP JUMPDEST STOP JUMPDEST PUSH3 0xFD PUSH1 0x4 DUP1 CALLDATASIZE SUB DUP2 ADD SWAP1 PUSH3 0xF7 SWAP2 SWAP1 PUSH3 0xB6B JUMP JUMPDEST PUSH3 0x5BF JUMP JUMPDEST STOP JUMPDEST CALLVALUE DUP1 ISZERO PUSH3 0x10C JUMPI PUSH1 0x0 DUP1 REVERT JUMPDEST POP PUSH3 0x12B PUSH1 0x4 DUP1 CALLDATASIZE SUB DUP2 ADD SWAP1 PUSH3 0x125 SWAP2 SWAP1 PUSH3 0xC9B JUMP JUMPDEST PUSH3 0x75D JUMP JUMPDEST PUSH1 0x40 MLOAD PUSH3 0x13A SWAP2 SWAP1 PUSH3 0xCF3 JUMP JUMPDEST PUSH1 0x40 MLOAD DUP1 SWAP2 SUB SWAP1 RETURN JUMPDEST PUSH1 0x0 PUSH1 0x3 PUSH1 0x0 DUP4 PUSH20 0xFFFFFFFFFFFFFFFFFFFFFFFFFFFFFFFFFFFFFFFF AND PUSH20 0xFFFFFFFFFFFFFFFFFFFFFFFFFFFFFFFFFFFFFFFF AND DUP2 MSTORE PUSH1 0x20 ADD SWAP1 DUP2 MSTORE PUSH1 0x20 ADD PUSH1 0x0 KECCAK256 PUSH1 0x0 CALLER PUSH20 0xFFFFFFFFFFFFFFFFFFFFFFFFFFFFFFFFFFFFFFFF AND PUSH20 0xFFFFFFFFFFFFFFFFFFFFFFFFFFFFFFFFFFFFFFFF AND DUP2 MSTORE PUSH1 0x20 ADD SWAP1 DUP2 MSTORE PUSH1 0x20 ADD PUSH1 0x0 KECCAK256 SLOAD SWAP1 POP PUSH1 0x0 DUP2 GT PUSH3 0x20A JUMPI PUSH1 0x40 MLOAD PUSH32 0x8C379A000000000000000000000000000000000000000000000000000000000 DUP2 MSTORE PUSH1 0x4 ADD PUSH3 0x201 SWAP1 PUSH3 0xD71 JUMP JUMPDEST PUSH1 0x40 MLOAD DUP1 SWAP2 SUB SWAP1 REVERT JUMPDEST DUP2 PUSH20 0xFFFFFFFFFFFFFFFFFFFFFFFFFFFFFFFFFFFFFFFF AND PUSH4 0xA9059CBB CALLER DUP4 PUSH1 0x40 MLOAD DUP4 PUSH4 0xFFFFFFFF AND PUSH1 0xE0 SHL DUP2 MSTORE PUSH1 0x4 ADD PUSH3 0x247 SWAP3 SWAP2 SWAP1 PUSH3 0xDA4 JUMP JUMPDEST PUSH1 0x20 PUSH1 0x40 MLOAD DUP1 DUP4 SUB DUP2 PUSH1 0x0 DUP8 GAS CALL ISZERO DUP1 ISZERO PUSH3 0x267 JUMPI RETURNDATASIZE PUSH1 0x0 DUP1 RETURNDATACOPY RETURNDATASIZE PUSH1 0x0 REVERT JUMPDEST POP POP POP POP PUSH1 0x40 MLOAD RETURNDATASIZE PUSH1 0x1F NOT PUSH1 0x1F DUP3 ADD AND DUP3 ADD DUP1 PUSH1 0x40 MSTORE POP DUP2 ADD SWAP1 PUSH3 0x28D SWAP2 SWAP1 PUSH3 0xE0E JUMP JUMPDEST POP PUSH1 0x0 PUSH1 0x3 PUSH1 0x0 DUP5 PUSH20 0xFFFFFFFFFFFFFFFFFFFFFFFFFFFFFFFFFFFFFFFF AND PUSH20 0xFFFFFFFFFFFFFFFFFFFFFFFFFFFFFFFFFFFFFFFF AND DUP2 MSTORE PUSH1 0x20 ADD SWAP1 DUP2 MSTORE PUSH1 0x20 ADD PUSH1 0x0 KECCAK256 PUSH1 0x0 CALLER PUSH20 0xFFFFFFFFFFFFFFFFFFFFFFFFFFFFFFFFFFFFFFFF AND PUSH20 0xFFFFFFFFFFFFFFFFFFFFFFFFFFFFFFFFFFFFFFFF AND DUP2 MSTORE PUSH1 0x20 ADD SWAP1 DUP2 MSTORE PUSH1 0x20 ADD PUSH1 0x0 KECCAK256 DUP2 SWAP1 SSTORE POP POP POP JUMP JUMPDEST POP JUMP JUMPDEST PUSH1 0x0 DUP1 SLOAD SWAP1 PUSH2 0x100 EXP SWAP1 DIV PUSH20 0xFFFFFFFFFFFFFFFFFFFFFFFFFFFFFFFFFFFFFFFF AND PUSH20 0xFFFFFFFFFFFFFFFFFFFFFFFFFFFFFFFFFFFFFFFF AND CALLER PUSH20 0xFFFFFFFFFFFFFFFFFFFFFFFFFFFFFFFFFFFFFFFF AND EQ PUSH3 0x3A8 JUMPI PUSH1 0x40 MLOAD PUSH32 0x8C379A000000000000000000000000000000000000000000000000000000000 DUP2 MSTORE PUSH1 0x4 ADD PUSH3 0x39F SWAP1 PUSH3 0xEB6 JUMP JUMPDEST PUSH1 0x40 MLOAD DUP1 SWAP2 SUB SWAP1 REVERT JUMPDEST PUSH1 0x0 JUMPDEST DUP3 DUP3 SWAP1 POP DUP2 LT ISZERO PUSH3 0x5BA JUMPI PUSH1 0x0 DUP4 DUP4 DUP4 DUP2 DUP2 LT PUSH3 0x3CF JUMPI PUSH3 0x3CE PUSH3 0xED8 JUMP JUMPDEST JUMPDEST SWAP1 POP PUSH1 0x20 MUL DUP2 ADD SWAP1 PUSH3 0x3E3 SWAP2 SWAP1 PUSH3 0xF16 JUMP JUMPDEST PUSH1 0x0 ADD PUSH1 0x20 DUP2 ADD SWAP1 PUSH3 0x3F7 SWAP2 SWAP1 PUSH3 0x87F JUMP JUMPDEST SWAP1 POP PUSH1 0x0 JUMPDEST DUP5 DUP5 DUP5 DUP2 DUP2 LT PUSH3 0x412 JUMPI PUSH3 0x411 PUSH3 0xED8 JUMP JUMPDEST JUMPDEST SWAP1 POP PUSH1 0x20 MUL DUP2 ADD SWAP1 PUSH3 0x426 SWAP2 SWAP1 PUSH3 0xF16 JUMP JUMPDEST DUP1 PUSH1 0x20 ADD SWAP1 PUSH3 0x437 SWAP2 SWAP1 PUSH3 0xF41 JUMP JUMPDEST SWAP1 POP DUP2 LT ISZERO PUSH3 0x5AA JUMPI PUSH1 0x0 DUP6 DUP6 DUP6 DUP2 DUP2 LT PUSH3 0x459 JUMPI PUSH3 0x458 PUSH3 0xED8 JUMP JUMPDEST JUMPDEST SWAP1 POP PUSH1 0x20 MUL DUP2 ADD SWAP1 PUSH3 0x46D SWAP2 SWAP1 PUSH3 0xF16 JUMP JUMPDEST DUP1 PUSH1 0x20 ADD SWAP1 PUSH3 0x47E SWAP2 SWAP1 PUSH3 0xF41 JUMP JUMPDEST DUP4 DUP2 DUP2 LT PUSH3 0x492 JUMPI PUSH3 0x491 PUSH3 0xED8 JUMP JUMPDEST JUMPDEST SWAP1 POP PUSH1 0x20 MUL ADD PUSH1 0x20 DUP2 ADD SWAP1 PUSH3 0x4A9 SWAP2 SWAP1 PUSH3 0xFAD JUMP JUMPDEST SWAP1 POP PUSH1 0x0 DUP7 DUP7 DUP7 DUP2 DUP2 LT PUSH3 0x4C3 JUMPI PUSH3 0x4C2 PUSH3 0xED8 JUMP JUMPDEST JUMPDEST SWAP1 POP PUSH1 0x20 MUL DUP2 ADD SWAP1 PUSH3 0x4D7 SWAP2 SWAP1 PUSH3 0xF16 JUMP JUMPDEST DUP1 PUSH1 0x40 ADD SWAP1 PUSH3 0x4E8 SWAP2 SWAP1 PUSH3 0xFDF JUMP JUMPDEST DUP5 DUP2 DUP2 LT PUSH3 0x4FC JUMPI PUSH3 0x4FB PUSH3 0xED8 JUMP JUMPDEST JUMPDEST SWAP1 POP PUSH1 0x20 MUL ADD CALLDATALOAD SWAP1 POP DUP1 PUSH1 0x3 PUSH1 0x0 DUP7 PUSH20 0xFFFFFFFFFFFFFFFFFFFFFFFFFFFFFFFFFFFFFFFF AND PUSH20 0xFFFFFFFFFFFFFFFFFFFFFFFFFFFFFFFFFFFFFFFF AND DUP2 MSTORE PUSH1 0x20 ADD SWAP1 DUP2 MSTORE PUSH1 0x20 ADD PUSH1 0x0 KECCAK256 PUSH1 0x0 DUP5 PUSH20 0xFFFFFFFFFFFFFFFFFFFFFFFFFFFFFFFFFFFFFFFF AND PUSH20 0xFFFFFFFFFFFFFFFFFFFFFFFFFFFFFFFFFFFFFFFF AND DUP2 MSTORE PUSH1 0x20 ADD SWAP1 DUP2 MSTORE PUSH1 0x20 ADD PUSH1 0x0 KECCAK256 PUSH1 0x0 DUP3 DUP3 SLOAD PUSH3 0x593 SWAP2 SWAP1 PUSH3 0x107A JUMP JUMPDEST SWAP3 POP POP DUP2 SWAP1 SSTORE POP POP POP DUP1 DUP1 PUSH1 0x1 ADD SWAP2 POP POP PUSH3 0x3FC JUMP JUMPDEST POP POP DUP1 DUP1 PUSH1 0x1 ADD SWAP2 POP POP PUSH3 0x3AB JUMP JUMPDEST POP POP POP JUMP JUMPDEST PUSH1 0x0 DUP8 DUP8 DUP8 PUSH1 0x40 MLOAD PUSH3 0x5D2 SWAP1 PUSH3 0x7E4 JUMP JUMPDEST PUSH3 0x5E0 SWAP4 SWAP3 SWAP2 SWAP1 PUSH3 0x112D JUMP JUMPDEST PUSH1 0x40 MLOAD DUP1 SWAP2 SUB SWAP1 PUSH1 0x0 CREATE DUP1 ISZERO DUP1 ISZERO PUSH3 0x5FD JUMPI RETURNDATASIZE PUSH1 0x0 DUP1 RETURNDATACOPY RETURNDATASIZE PUSH1 0x0 REVERT JUMPDEST POP SWAP1 POP PUSH1 0x0 PUSH1 0x1 PUSH1 0x0 DUP4 PUSH20 0xFFFFFFFFFFFFFFFFFFFFFFFFFFFFFFFFFFFFFFFF AND PUSH20 0xFFFFFFFFFFFFFFFFFFFFFFFFFFFFFFFFFFFFFFFF AND DUP2 MSTORE PUSH1 0x20 ADD SWAP1 DUP2 MSTORE PUSH1 0x20 ADD PUSH1 0x0 KECCAK256 SWAP1 POP DUP2 PUSH20 0xFFFFFFFFFFFFFFFFFFFFFFFFFFFFFFFFFFFFFFFF AND PUSH4 0x6FDDE03 PUSH1 0x40 MLOAD DUP2 PUSH4 0xFFFFFFFF AND PUSH1 0xE0 SHL DUP2 MSTORE PUSH1 0x4 ADD PUSH1 0x0 PUSH1 0x40 MLOAD DUP1 DUP4 SUB DUP2 DUP7 GAS STATICCALL ISZERO DUP1 ISZERO PUSH3 0x68F JUMPI RETURNDATASIZE PUSH1 0x0 DUP1 RETURNDATACOPY RETURNDATASIZE PUSH1 0x0 REVERT JUMPDEST POP POP POP POP PUSH1 0x40 MLOAD RETURNDATASIZE PUSH1 0x0 DUP3 RETURNDATACOPY RETURNDATASIZE PUSH1 0x1F NOT PUSH1 0x1F DUP3 ADD AND DUP3 ADD DUP1 PUSH1 0x40 MSTORE POP DUP2 ADD SWAP1 PUSH3 0x6BA SWAP2 SWAP1 PUSH3 0x11F6 JUMP JUMPDEST DUP2 PUSH1 0x0 ADD SWAP1 DUP2 PUSH3 0x6CC SWAP2 SWAP1 PUSH3 0x147D JUMP JUMPDEST POP DUP6 DUP6 DUP3 PUSH1 0x1 ADD SWAP2 DUP3 PUSH3 0x6E2 SWAP3 SWAP2 SWAP1 PUSH3 0x156F JUMP JUMPDEST POP PUSH1 0x0 DUP2 PUSH1 0x2 ADD PUSH1 0x0 ADD DUP2 SWAP1 SSTORE POP DUP3 DUP2 PUSH1 0x2 ADD PUSH1 0x1 ADD DUP2 SWAP1 SSTORE POP PUSH1 0x0 PUSH1 0x2 PUSH1 0x0 DUP5 PUSH20 0xFFFFFFFFFFFFFFFFFFFFFFFFFFFFFFFFFFFFFFFF AND PUSH20 0xFFFFFFFFFFFFFFFFFFFFFFFFFFFFFFFFFFFFFFFF AND DUP2 MSTORE PUSH1 0x20 ADD SWAP1 DUP2 MSTORE PUSH1 0x20 ADD PUSH1 0x0 KECCAK256 SWAP1 POP CALLVALUE DUP2 PUSH1 0x0 ADD DUP2 SWAP1 SSTORE POP DUP5 DUP2 PUSH1 0x1 ADD DUP2 SWAP1 SSTORE POP POP POP POP POP POP POP POP POP POP POP JUMP JUMPDEST PUSH1 0x0 PUSH1 0x3 PUSH1 0x0 DUP5 PUSH20 0xFFFFFFFFFFFFFFFFFFFFFFFFFFFFFFFFFFFFFFFF AND PUSH20 0xFFFFFFFFFFFFFFFFFFFFFFFFFFFFFFFFFFFFFFFF AND DUP2 MSTORE PUSH1 0x20 ADD SWAP1 DUP2 MSTORE PUSH1 0x20 ADD PUSH1 0x0 KECCAK256 PUSH1 0x0 DUP4 PUSH20 0xFFFFFFFFFFFFFFFFFFFFFFFFFFFFFFFFFFFFFFFF AND PUSH20 0xFFFFFFFFFFFFFFFFFFFFFFFFFFFFFFFFFFFFFFFF AND DUP2 MSTORE PUSH1 0x20 ADD SWAP1 DUP2 MSTORE PUSH1 0x20 ADD PUSH1 0x0 KECCAK256 SLOAD SWAP1 POP SWAP3 SWAP2 POP POP JUMP JUMPDEST PUSH2 0x12D3 DUP1 PUSH3 0x1655 DUP4 CODECOPY ADD SWAP1 JUMP JUMPDEST PUSH1 0x0 PUSH1 0x40 MLOAD SWAP1 POP SWAP1 JUMP JUMPDEST PUSH1 0x0 DUP1 REVERT JUMPDEST PUSH1 0x0 DUP1 REVERT JUMPDEST PUSH1 0x0 PUSH20 0xFFFFFFFFFFFFFFFFFFFFFFFFFFFFFFFFFFFFFFFF DUP3 AND SWAP1 POP SWAP2 SWAP1 POP JUMP JUMPDEST PUSH1 0x0 PUSH3 0x833 DUP3 PUSH3 0x806 JUMP JUMPDEST SWAP1 POP SWAP2 SWAP1 POP JUMP JUMPDEST PUSH1 0x0 PUSH3 0x847 DUP3 PUSH3 0x826 JUMP JUMPDEST SWAP1 POP SWAP2 SWAP1 POP JUMP JUMPDEST PUSH3 0x859 DUP2 PUSH3 0x83A JUMP JUMPDEST DUP2 EQ PUSH3 0x865 JUMPI PUSH1 0x0 DUP1 REVERT JUMPDEST POP JUMP JUMPDEST PUSH1 0x0 DUP2 CALLDATALOAD SWAP1 POP PUSH3 0x879 DUP2 PUSH3 0x84E JUMP JUMPDEST SWAP3 SWAP2 POP POP JUMP JUMPDEST PUSH1 0x0 PUSH1 0x20 DUP3 DUP5 SUB SLT ISZERO PUSH3 0x898 JUMPI PUSH3 0x897 PUSH3 0x7FC JUMP JUMPDEST JUMPDEST PUSH1 0x0 PUSH3 0x8A8 DUP5 DUP3 DUP6 ADD PUSH3 0x868 JUMP JUMPDEST SWAP2 POP POP SWAP3 SWAP2 POP POP JUMP JUMPDEST PUSH1 0x0 DUP1 REVERT JUMPDEST PUSH1 0x0 DUP1 REVERT JUMPDEST PUSH1 0x0 DUP1 REVERT JUMPDEST PUSH1 0x0 DUP1 DUP4 PUSH1 0x1F DUP5 ADD SLT PUSH3 0x8D9 JUMPI PUSH3 0x8D8 PUSH3 0x8B1 JUMP JUMPDEST JUMPDEST DUP3 CALLDATALOAD SWAP1 POP PUSH8 0xFFFFFFFFFFFFFFFF DUP2 GT ISZERO PUSH3 0x8F9 JUMPI PUSH3 0x8F8 PUSH3 0x8B6 JUMP JUMPDEST JUMPDEST PUSH1 0x20 DUP4 ADD SWAP2 POP DUP4 PUSH1 0x20 DUP3 MUL DUP4 ADD GT ISZERO PUSH3 0x918 JUMPI PUSH3 0x917 PUSH3 0x8BB JUMP JUMPDEST JUMPDEST SWAP3 POP SWAP3 SWAP1 POP JUMP JUMPDEST PUSH1 0x0 DUP1 PUSH1 0x20 DUP4 DUP6 SUB SLT ISZERO PUSH3 0x939 JUMPI PUSH3 0x938 PUSH3 0x7FC JUMP JUMPDEST JUMPDEST PUSH1 0x0 DUP4 ADD CALLDATALOAD PUSH8 0xFFFFFFFFFFFFFFFF DUP2 GT ISZERO PUSH3 0x95A JUMPI PUSH3 0x959 PUSH3 0x801 JUMP JUMPDEST JUMPDEST PUSH3 0x968 DUP6 DUP3 DUP7 ADD PUSH3 0x8C0 JUMP JUMPDEST SWAP3 POP SWAP3 POP POP SWAP3 POP SWAP3 SWAP1 POP JUMP JUMPDEST PUSH1 0x0 DUP1 REVERT JUMPDEST PUSH1 0x0 PUSH1 0x1F NOT PUSH1 0x1F DUP4 ADD AND SWAP1 POP SWAP2 SWAP1 POP JUMP JUMPDEST PUSH32 0x4E487B7100000000000000000000000000000000000000000000000000000000 PUSH1 0x0 MSTORE PUSH1 0x41 PUSH1 0x4 MSTORE PUSH1 0x24 PUSH1 0x0 REVERT JUMPDEST PUSH3 0x9C4 DUP3 PUSH3 0x979 JUMP JUMPDEST DUP2 ADD DUP2 DUP2 LT PUSH8 0xFFFFFFFFFFFFFFFF DUP3 GT OR ISZERO PUSH3 0x9E6 JUMPI PUSH3 0x9E5 PUSH3 0x98A JUMP JUMPDEST JUMPDEST DUP1 PUSH1 0x40 MSTORE POP POP POP JUMP JUMPDEST PUSH1 0x0 PUSH3 0x9FB PUSH3 0x7F2 JUMP JUMPDEST SWAP1 POP PUSH3 0xA09 DUP3 DUP3 PUSH3 0x9B9 JUMP JUMPDEST SWAP2 SWAP1 POP JUMP JUMPDEST PUSH1 0x0 PUSH8 0xFFFFFFFFFFFFFFFF DUP3 GT ISZERO PUSH3 0xA2C JUMPI PUSH3 0xA2B PUSH3 0x98A JUMP JUMPDEST JUMPDEST PUSH3 0xA37 DUP3 PUSH3 0x979 JUMP JUMPDEST SWAP1 POP PUSH1 0x20 DUP2 ADD SWAP1 POP SWAP2 SWAP1 POP JUMP JUMPDEST DUP3 DUP2 DUP4 CALLDATACOPY PUSH1 0x0 DUP4 DUP4 ADD MSTORE POP POP POP JUMP JUMPDEST PUSH1 0x0 PUSH3 0xA6A PUSH3 0xA64 DUP5 PUSH3 0xA0E JUMP JUMPDEST PUSH3 0x9EF JUMP JUMPDEST SWAP1 POP DUP3 DUP2 MSTORE PUSH1 0x20 DUP2 ADD DUP5 DUP5 DUP5 ADD GT ISZERO PUSH3 0xA89 JUMPI PUSH3 0xA88 PUSH3 0x974 JUMP JUMPDEST JUMPDEST PUSH3 0xA96 DUP5 DUP3 DUP6 PUSH3 0xA44 JUMP JUMPDEST POP SWAP4 SWAP3 POP POP POP JUMP JUMPDEST PUSH1 0x0 DUP3 PUSH1 0x1F DUP4 ADD SLT PUSH3 0xAB6 JUMPI PUSH3 0xAB5 PUSH3 0x8B1 JUMP JUMPDEST JUMPDEST DUP2 CALLDATALOAD PUSH3 0xAC8 DUP5 DUP3 PUSH1 0x20 DUP7 ADD PUSH3 0xA53 JUMP JUMPDEST SWAP2 POP POP SWAP3 SWAP2 POP POP JUMP JUMPDEST PUSH1 0x0 DUP2 SWAP1 POP SWAP2 SWAP1 POP JUMP JUMPDEST PUSH3 0xAE6 DUP2 PUSH3 0xAD1 JUMP JUMPDEST DUP2 EQ PUSH3 0xAF2 JUMPI PUSH1 0x0 DUP1 REVERT JUMPDEST POP JUMP JUMPDEST PUSH1 0x0 DUP2 CALLDATALOAD SWAP1 POP PUSH3 0xB06 DUP2 PUSH3 0xADB JUMP JUMPDEST SWAP3 SWAP2 POP POP JUMP JUMPDEST PUSH1 0x0 DUP1 DUP4 PUSH1 0x1F DUP5 ADD SLT PUSH3 0xB25 JUMPI PUSH3 0xB24 PUSH3 0x8B1 JUMP JUMPDEST JUMPDEST DUP3 CALLDATALOAD SWAP1 POP PUSH8 0xFFFFFFFFFFFFFFFF DUP2 GT ISZERO PUSH3 0xB45 JUMPI PUSH3 0xB44 PUSH3 0x8B6 JUMP JUMPDEST JUMPDEST PUSH1 0x20 DUP4 ADD SWAP2 POP DUP4 PUSH1 0x1 DUP3 MUL DUP4 ADD GT ISZERO PUSH3 0xB64 JUMPI PUSH3 0xB63 PUSH3 0x8BB JUMP JUMPDEST JUMPDEST SWAP3 POP SWAP3 SWAP1 POP JUMP JUMPDEST PUSH1 0x0 DUP1 PUSH1 0x0 DUP1 PUSH1 0x0 DUP1 PUSH1 0x0 PUSH1 0xC0 DUP9 DUP11 SUB SLT ISZERO PUSH3 0xB8D JUMPI PUSH3 0xB8C PUSH3 0x7FC JUMP JUMPDEST JUMPDEST PUSH1 0x0 DUP9 ADD CALLDATALOAD PUSH8 0xFFFFFFFFFFFFFFFF DUP2 GT ISZERO PUSH3 0xBAE JUMPI PUSH3 0xBAD PUSH3 0x801 JUMP JUMPDEST JUMPDEST PUSH3 0xBBC DUP11 DUP3 DUP12 ADD PUSH3 0xA9E JUMP JUMPDEST SWAP8 POP POP PUSH1 0x20 DUP9 ADD CALLDATALOAD PUSH8 0xFFFFFFFFFFFFFFFF DUP2 GT ISZERO PUSH3 0xBE0 JUMPI PUSH3 0xBDF PUSH3 0x801 JUMP JUMPDEST JUMPDEST PUSH3 0xBEE DUP11 DUP3 DUP12 ADD PUSH3 0xA9E JUMP JUMPDEST SWAP7 POP POP PUSH1 0x40 PUSH3 0xC01 DUP11 DUP3 DUP12 ADD PUSH3 0xAF5 JUMP JUMPDEST SWAP6 POP POP PUSH1 0x60 DUP9 ADD CALLDATALOAD PUSH8 0xFFFFFFFFFFFFFFFF DUP2 GT ISZERO PUSH3 0xC25 JUMPI PUSH3 0xC24 PUSH3 0x801 JUMP JUMPDEST JUMPDEST PUSH3 0xC33 DUP11 DUP3 DUP12 ADD PUSH3 0xB0C JUMP JUMPDEST SWAP5 POP SWAP5 POP POP PUSH1 0x80 PUSH3 0xC48 DUP11 DUP3 DUP12 ADD PUSH3 0xAF5 JUMP JUMPDEST SWAP3 POP POP PUSH1 0xA0 PUSH3 0xC5B DUP11 DUP3 DUP12 ADD PUSH3 0xAF5 JUMP JUMPDEST SWAP2 POP POP SWAP3 SWAP6 SWAP9 SWAP2 SWAP5 SWAP8 POP SWAP3 SWAP6 POP JUMP JUMPDEST PUSH3 0xC75 DUP2 PUSH3 0x826 JUMP JUMPDEST DUP2 EQ PUSH3 0xC81 JUMPI PUSH1 0x0 DUP1 REVERT JUMPDEST POP JUMP JUMPDEST PUSH1 0x0 DUP2 CALLDATALOAD SWAP1 POP PUSH3 0xC95 DUP2 PUSH3 0xC6A JUMP JUMPDEST SWAP3 SWAP2 POP POP JUMP JUMPDEST PUSH1 0x0 DUP1 PUSH1 0x40 DUP4 DUP6 SUB SLT ISZERO PUSH3 0xCB5 JUMPI PUSH3 0xCB4 PUSH3 0x7FC JUMP JUMPDEST JUMPDEST PUSH1 0x0 PUSH3 0xCC5 DUP6 DUP3 DUP7 ADD PUSH3 0x868 JUMP JUMPDEST SWAP3 POP POP PUSH1 0x20 PUSH3 0xCD8 DUP6 DUP3 DUP7 ADD PUSH3 0xC84 JUMP JUMPDEST SWAP2 POP POP SWAP3 POP SWAP3 SWAP1 POP JUMP JUMPDEST PUSH3 0xCED DUP2 PUSH3 0xAD1 JUMP JUMPDEST DUP3 MSTORE POP POP JUMP JUMPDEST PUSH1 0x0 PUSH1 0x20 DUP3 ADD SWAP1 POP PUSH3 0xD0A PUSH1 0x0 DUP4 ADD DUP5 PUSH3 0xCE2 JUMP JUMPDEST SWAP3 SWAP2 POP POP JUMP JUMPDEST PUSH1 0x0 DUP3 DUP3 MSTORE PUSH1 0x20 DUP3 ADD SWAP1 POP SWAP3 SWAP2 POP POP JUMP JUMPDEST PUSH32 0x4E6F207265776172647320746F20636C61696D00000000000000000000000000 PUSH1 0x0 DUP3 ADD MSTORE POP JUMP JUMPDEST PUSH1 0x0 PUSH3 0xD59 PUSH1 0x13 DUP4 PUSH3 0xD10 JUMP JUMPDEST SWAP2 POP PUSH3 0xD66 DUP3 PUSH3 0xD21 JUMP JUMPDEST PUSH1 0x20 DUP3 ADD SWAP1 POP SWAP2 SWAP1 POP JUMP JUMPDEST PUSH1 0x0 PUSH1 0x20 DUP3 ADD SWAP1 POP DUP2 DUP2 SUB PUSH1 0x0 DUP4 ADD MSTORE PUSH3 0xD8C DUP2 PUSH3 0xD4A JUMP JUMPDEST SWAP1 POP SWAP2 SWAP1 POP JUMP JUMPDEST PUSH3 0xD9E DUP2 PUSH3 0x826 JUMP JUMPDEST DUP3 MSTORE POP POP JUMP JUMPDEST PUSH1 0x0 PUSH1 0x40 DUP3 ADD SWAP1 POP PUSH3 0xDBB PUSH1 0x0 DUP4 ADD DUP6 PUSH3 0xD93 JUMP JUMPDEST PUSH3 0xDCA PUSH1 0x20 DUP4 ADD DUP5 PUSH3 0xCE2 JUMP JUMPDEST SWAP4 SWAP3 POP POP POP JUMP JUMPDEST PUSH1 0x0 DUP2 ISZERO ISZERO SWAP1 POP SWAP2 SWAP1 POP JUMP JUMPDEST PUSH3 0xDE8 DUP2 PUSH3 0xDD1 JUMP JUMPDEST DUP2 EQ PUSH3 0xDF4 JUMPI PUSH1 0x0 DUP1 REVERT JUMPDEST POP JUMP JUMPDEST PUSH1 0x0 DUP2 MLOAD SWAP1 POP PUSH3 0xE08 DUP2 PUSH3 0xDDD JUMP JUMPDEST SWAP3 SWAP2 POP POP JUMP JUMPDEST PUSH1 0x0 PUSH1 0x20 DUP3 DUP5 SUB SLT ISZERO PUSH3 0xE27 JUMPI PUSH3 0xE26 PUSH3 0x7FC JUMP JUMPDEST JUMPDEST PUSH1 0x0 PUSH3 0xE37 DUP5 DUP3 DUP6 ADD PUSH3 0xDF7 JUMP JUMPDEST SWAP2 POP POP SWAP3 SWAP2 POP POP JUMP JUMPDEST PUSH32 0x4F6E6C7920746865206F776E65722063616E20636C6F736520616E2065706F63 PUSH1 0x0 DUP3 ADD MSTORE PUSH32 0x6800000000000000000000000000000000000000000000000000000000000000 PUSH1 0x20 DUP3 ADD MSTORE POP JUMP JUMPDEST PUSH1 0x0 PUSH3 0xE9E PUSH1 0x21 DUP4 PUSH3 0xD10 JUMP JUMPDEST SWAP2 POP PUSH3 0xEAB DUP3 PUSH3 0xE40 JUMP JUMPDEST PUSH1 0x40 DUP3 ADD SWAP1 POP SWAP2 SWAP1 POP JUMP JUMPDEST PUSH1 0x0 PUSH1 0x20 DUP3 ADD SWAP1 POP DUP2 DUP2 SUB PUSH1 0x0 DUP4 ADD MSTORE PUSH3 0xED1 DUP2 PUSH3 0xE8F JUMP JUMPDEST SWAP1 POP SWAP2 SWAP1 POP JUMP JUMPDEST PUSH32 0x4E487B7100000000000000000000000000000000000000000000000000000000 PUSH1 0x0 MSTORE PUSH1 0x32 PUSH1 0x4 MSTORE PUSH1 0x24 PUSH1 0x0 REVERT JUMPDEST PUSH1 0x0 DUP1 REVERT JUMPDEST PUSH1 0x0 DUP1 REVERT JUMPDEST PUSH1 0x0 DUP1 REVERT JUMPDEST PUSH1 0x0 DUP3 CALLDATALOAD PUSH1 0x1 PUSH1 0x60 SUB DUP4 CALLDATASIZE SUB SUB DUP2 SLT PUSH3 0xF35 JUMPI PUSH3 0xF34 PUSH3 0xF07 JUMP JUMPDEST JUMPDEST DUP1 DUP4 ADD SWAP2 POP POP SWAP3 SWAP2 POP POP JUMP JUMPDEST PUSH1 0x0 DUP1 DUP4 CALLDATALOAD PUSH1 0x1 PUSH1 0x20 SUB DUP5 CALLDATASIZE SUB SUB DUP2 SLT PUSH3 0xF61 JUMPI PUSH3 0xF60 PUSH3 0xF07 JUMP JUMPDEST JUMPDEST DUP1 DUP5 ADD SWAP3 POP DUP3 CALLDATALOAD SWAP2 POP PUSH8 0xFFFFFFFFFFFFFFFF DUP3 GT ISZERO PUSH3 0xF86 JUMPI PUSH3 0xF85 PUSH3 0xF0C JUMP JUMPDEST JUMPDEST PUSH1 0x20 DUP4 ADD SWAP3 POP PUSH1 0x20 DUP3 MUL CALLDATASIZE SUB DUP4 SGT ISZERO PUSH3 0xFA5 JUMPI PUSH3 0xFA4 PUSH3 0xF11 JUMP JUMPDEST JUMPDEST POP SWAP3 POP SWAP3 SWAP1 POP JUMP JUMPDEST PUSH1 0x0 PUSH1 0x20 DUP3 DUP5 SUB SLT ISZERO PUSH3 0xFC6 JUMPI PUSH3 0xFC5 PUSH3 0x7FC JUMP JUMPDEST JUMPDEST PUSH1 0x0 PUSH3 0xFD6 DUP5 DUP3 DUP6 ADD PUSH3 0xC84 JUMP JUMPDEST SWAP2 POP POP SWAP3 SWAP2 POP POP JUMP JUMPDEST PUSH1 0x0 DUP1 DUP4 CALLDATALOAD PUSH1 0x1 PUSH1 0x20 SUB DUP5 CALLDATASIZE SUB SUB DUP2 SLT PUSH3 0xFFF JUMPI PUSH3 0xFFE PUSH3 0xF07 JUMP JUMPDEST JUMPDEST DUP1 DUP5 ADD SWAP3 POP DUP3 CALLDATALOAD SWAP2 POP PUSH8 0xFFFFFFFFFFFFFFFF DUP3 GT ISZERO PUSH3 0x1024 JUMPI PUSH3 0x1023 PUSH3 0xF0C JUMP JUMPDEST JUMPDEST PUSH1 0x20 DUP4 ADD SWAP3 POP PUSH1 0x20 DUP3 MUL CALLDATASIZE SUB DUP4 SGT ISZERO PUSH3 0x1043 JUMPI PUSH3 0x1042 PUSH3 0xF11 JUMP JUMPDEST JUMPDEST POP SWAP3 POP SWAP3 SWAP1 POP JUMP JUMPDEST PUSH32 0x4E487B7100000000000000000000000000000000000000000000000000000000 PUSH1 0x0 MSTORE PUSH1 0x11 PUSH1 0x4 MSTORE PUSH1 0x24 PUSH1 0x0 REVERT JUMPDEST PUSH1 0x0 PUSH3 0x1087 DUP3 PUSH3 0xAD1 JUMP JUMPDEST SWAP2 POP PUSH3 0x1094 DUP4 PUSH3 0xAD1 JUMP JUMPDEST SWAP3 POP DUP3 DUP3 ADD SWAP1 POP DUP1 DUP3 GT ISZERO PUSH3 0x10AF JUMPI PUSH3 0x10AE PUSH3 0x104B JUMP JUMPDEST JUMPDEST SWAP3 SWAP2 POP POP JUMP JUMPDEST PUSH1 0x0 DUP2 MLOAD SWAP1 POP SWAP2 SWAP1 POP JUMP JUMPDEST PUSH1 0x0 JUMPDEST DUP4 DUP2 LT ISZERO PUSH3 0x10E0 JUMPI DUP1 DUP3 ADD MLOAD DUP2 DUP5 ADD MSTORE PUSH1 0x20 DUP2 ADD SWAP1 POP PUSH3 0x10C3 JUMP JUMPDEST PUSH1 0x0 DUP5 DUP5 ADD MSTORE POP POP POP POP JUMP JUMPDEST PUSH1 0x0 PUSH3 0x10F9 DUP3 PUSH3 0x10B5 JUMP JUMPDEST PUSH3 0x1105 DUP2 DUP6 PUSH3 0xD10 JUMP JUMPDEST SWAP4 POP PUSH3 0x1117 DUP2 DUP6 PUSH1 0x20 DUP7 ADD PUSH3 0x10C0 JUMP JUMPDEST PUSH3 0x1122 DUP2 PUSH3 0x979 JUMP JUMPDEST DUP5 ADD SWAP2 POP POP SWAP3 SWAP2 POP POP JUMP JUMPDEST PUSH1 0x0 PUSH1 0x60 DUP3 ADD SWAP1 POP DUP2 DUP2 SUB PUSH1 0x0 DUP4 ADD MSTORE PUSH3 0x1149 DUP2 DUP7 PUSH3 0x10EC JUMP JUMPDEST SWAP1 POP DUP2 DUP2 SUB PUSH1 0x20 DUP4 ADD MSTORE PUSH3 0x115F DUP2 DUP6 PUSH3 0x10EC JUMP JUMPDEST SWAP1 POP PUSH3 0x1170 PUSH1 0x40 DUP4 ADD DUP5 PUSH3 0xCE2 JUMP JUMPDEST SWAP5 SWAP4 POP POP POP POP JUMP JUMPDEST PUSH1 0x0 PUSH3 0x118F PUSH3 0x1189 DUP5 PUSH3 0xA0E JUMP JUMPDEST PUSH3 0x9EF JUMP JUMPDEST SWAP1 POP DUP3 DUP2 MSTORE PUSH1 0x20 DUP2 ADD DUP5 DUP5 DUP5 ADD GT ISZERO PUSH3 0x11AE JUMPI PUSH3 0x11AD PUSH3 0x974 JUMP JUMPDEST JUMPDEST PUSH3 0x11BB DUP5 DUP3 DUP6 PUSH3 0x10C0 JUMP JUMPDEST POP SWAP4 SWAP3 POP POP POP JUMP JUMPDEST PUSH1 0x0 DUP3 PUSH1 0x1F DUP4 ADD SLT PUSH3 0x11DB JUMPI PUSH3 0x11DA PUSH3 0x8B1 JUMP JUMPDEST JUMPDEST DUP2 MLOAD PUSH3 0x11ED DUP5 DUP3 PUSH1 0x20 DUP7 ADD PUSH3 0x1178 JUMP JUMPDEST SWAP2 POP POP SWAP3 SWAP2 POP POP JUMP JUMPDEST PUSH1 0x0 PUSH1 0x20 DUP3 DUP5 SUB SLT ISZERO PUSH3 0x120F JUMPI PUSH3 0x120E PUSH3 0x7FC JUMP JUMPDEST JUMPDEST PUSH1 0x0 DUP3 ADD MLOAD PUSH8 0xFFFFFFFFFFFFFFFF DUP2 GT ISZERO PUSH3 0x1230 JUMPI PUSH3 0x122F PUSH3 0x801 JUMP JUMPDEST JUMPDEST PUSH3 0x123E DUP5 DUP3 DUP6 ADD PUSH3 0x11C3 JUMP JUMPDEST SWAP2 POP POP SWAP3 SWAP2 POP POP JUMP JUMPDEST PUSH32 0x4E487B7100000000000000000000000000000000000000000000000000000000 PUSH1 0x0 MSTORE PUSH1 0x22 PUSH1 0x4 MSTORE PUSH1 0x24 PUSH1 0x0 REVERT JUMPDEST PUSH1 0x0 PUSH1 0x2 DUP3 DIV SWAP1 POP PUSH1 0x1 DUP3 AND DUP1 PUSH3 0x128F JUMPI PUSH1 0x7F DUP3 AND SWAP2 POP JUMPDEST PUSH1 0x20 DUP3 LT DUP2 SUB PUSH3 0x12A5 JUMPI PUSH3 0x12A4 PUSH3 0x1247 JUMP JUMPDEST JUMPDEST POP SWAP2 SWAP1 POP JUMP JUMPDEST PUSH1 0x0 DUP2 SWAP1 POP DUP2 PUSH1 0x0 MSTORE PUSH1 0x20 PUSH1 0x0 KECCAK256 SWAP1 POP SWAP2 SWAP1 POP JUMP JUMPDEST PUSH1 0x0 PUSH1 0x20 PUSH1 0x1F DUP4 ADD DIV SWAP1 POP SWAP2 SWAP1 POP JUMP JUMPDEST PUSH1 0x0 DUP3 DUP3 SHL SWAP1 POP SWAP3 SWAP2 POP POP JUMP JUMPDEST PUSH1 0x0 PUSH1 0x8 DUP4 MUL PUSH3 0x130F PUSH32 0xFFFFFFFFFFFFFFFFFFFFFFFFFFFFFFFFFFFFFFFFFFFFFFFFFFFFFFFFFFFFFFFF DUP3 PUSH3 0x12D0 JUMP JUMPDEST PUSH3 0x131B DUP7 DUP4 PUSH3 0x12D0 JUMP JUMPDEST SWAP6 POP DUP1 NOT DUP5 AND SWAP4 POP DUP1 DUP7 AND DUP5 OR SWAP3 POP POP POP SWAP4 SWAP3 POP POP POP JUMP JUMPDEST PUSH1 0x0 DUP2 SWAP1 POP SWAP2 SWAP1 POP JUMP JUMPDEST PUSH1 0x0 PUSH3 0x135E PUSH3 0x1358 PUSH3 0x1352 DUP5 PUSH3 0xAD1 JUMP JUMPDEST PUSH3 0x1333 JUMP JUMPDEST PUSH3 0xAD1 JUMP JUMPDEST SWAP1 POP SWAP2 SWAP1 POP JUMP JUMPDEST PUSH1 0x0 DUP2 SWAP1 POP SWAP2 SWAP1 POP JUMP JUMPDEST PUSH3 0x137A DUP4 PUSH3 0x133D JUMP JUMPDEST PUSH3 0x1392 PUSH3 0x1389 DUP3 PUSH3 0x1365 JUMP JUMPDEST DUP5 DUP5 SLOAD PUSH3 0x12DD JUMP JUMPDEST DUP3 SSTORE POP POP POP POP JUMP JUMPDEST PUSH1 0x0 SWAP1 JUMP JUMPDEST PUSH3 0x13A9 PUSH3 0x139A JUMP JUMPDEST PUSH3 0x13B6 DUP2 DUP5 DUP5 PUSH3 0x136F JUMP JUMPDEST POP POP POP JUMP JUMPDEST JUMPDEST DUP2 DUP2 LT ISZERO PUSH3 0x13DE JUMPI PUSH3 0x13D2 PUSH1 0x0 DUP3 PUSH3 0x139F JUMP JUMPDEST PUSH1 0x1 DUP2 ADD SWAP1 POP PUSH3 0x13BC JUMP JUMPDEST POP POP JUMP JUMPDEST PUSH1 0x1F DUP3 GT ISZERO PUSH3 0x142D JUMPI PUSH3 0x13F7 DUP2 PUSH3 0x12AB JUMP JUMPDEST PUSH3 0x1402 DUP5 PUSH3 0x12C0 JUMP JUMPDEST DUP2 ADD PUSH1 0x20 DUP6 LT ISZERO PUSH3 0x1412 JUMPI DUP2 SWAP1 POP JUMPDEST PUSH3 0x142A PUSH3 0x1421 DUP6 PUSH3 0x12C0 JUMP JUMPDEST DUP4 ADD DUP3 PUSH3 0x13BB JUMP JUMPDEST POP POP JUMPDEST POP POP POP JUMP JUMPDEST PUSH1 0x0 DUP3 DUP3 SHR SWAP1 POP SWAP3 SWAP2 POP POP JUMP JUMPDEST PUSH1 0x0 PUSH3 0x1452 PUSH1 0x0 NOT DUP5 PUSH1 0x8 MUL PUSH3 0x1432 JUMP JUMPDEST NOT DUP1 DUP4 AND SWAP2 POP POP SWAP3 SWAP2 POP POP JUMP JUMPDEST PUSH1 0x0 PUSH3 0x146D DUP4 DUP4 PUSH3 0x143F JUMP JUMPDEST SWAP2 POP DUP3 PUSH1 0x2 MUL DUP3 OR SWAP1 POP SWAP3 SWAP2 POP POP JUMP JUMPDEST PUSH3 0x1488 DUP3 PUSH3 0x10B5 JUMP JUMPDEST PUSH8 0xFFFFFFFFFFFFFFFF DUP2 GT ISZERO PUSH3 0x14A4 JUMPI PUSH3 0x14A3 PUSH3 0x98A JUMP JUMPDEST JUMPDEST PUSH3 0x14B0 DUP3 SLOAD PUSH3 0x1276 JUMP JUMPDEST PUSH3 0x14BD DUP3 DUP3 DUP6 PUSH3 0x13E2 JUMP JUMPDEST PUSH1 0x0 PUSH1 0x20 SWAP1 POP PUSH1 0x1F DUP4 GT PUSH1 0x1 DUP2 EQ PUSH3 0x14F5 JUMPI PUSH1 0x0 DUP5 ISZERO PUSH3 0x14E0 JUMPI DUP3 DUP8 ADD MLOAD SWAP1 POP JUMPDEST PUSH3 0x14EC DUP6 DUP3 PUSH3 0x145F JUMP JUMPDEST DUP7 SSTORE POP PUSH3 0x155C JUMP JUMPDEST PUSH1 0x1F NOT DUP5 AND PUSH3 0x1505 DUP7 PUSH3 0x12AB JUMP JUMPDEST PUSH1 0x0 JUMPDEST DUP3 DUP2 LT ISZERO PUSH3 0x152F JUMPI DUP5 DUP10 ADD MLOAD DUP3 SSTORE PUSH1 0x1 DUP3 ADD SWAP2 POP PUSH1 0x20 DUP6 ADD SWAP5 POP PUSH1 0x20 DUP2 ADD SWAP1 POP PUSH3 0x1508 JUMP JUMPDEST DUP7 DUP4 LT ISZERO PUSH3 0x154F JUMPI DUP5 DUP10 ADD MLOAD PUSH3 0x154B PUSH1 0x1F DUP10 AND DUP3 PUSH3 0x143F JUMP JUMPDEST DUP4 SSTORE POP JUMPDEST PUSH1 0x1 PUSH1 0x2 DUP9 MUL ADD DUP9 SSTORE POP POP POP JUMPDEST POP POP POP POP POP POP JUMP JUMPDEST PUSH1 0x0 DUP3 SWAP1 POP SWAP3 SWAP2 POP POP JUMP JUMPDEST PUSH3 0x157B DUP4 DUP4 PUSH3 0x1564 JUMP JUMPDEST PUSH8 0xFFFFFFFFFFFFFFFF DUP2 GT ISZERO PUSH3 0x1597 JUMPI PUSH3 0x1596 PUSH3 0x98A JUMP JUMPDEST JUMPDEST PUSH3 0x15A3 DUP3 SLOAD PUSH3 0x1276 JUMP JUMPDEST PUSH3 0x15B0 DUP3 DUP3 DUP6 PUSH3 0x13E2 JUMP JUMPDEST PUSH1 0x0 PUSH1 0x1F DUP4 GT PUSH1 0x1 DUP2 EQ PUSH3 0x15E4 JUMPI PUSH1 0x0 DUP5 ISZERO PUSH3 0x15CF JUMPI DUP3 DUP8 ADD CALLDATALOAD SWAP1 POP JUMPDEST PUSH3 0x15DB DUP6 DUP3 PUSH3 0x145F JUMP JUMPDEST DUP7 SSTORE POP PUSH3 0x164B JUMP JUMPDEST PUSH1 0x1F NOT DUP5 AND PUSH3 0x15F4 DUP7 PUSH3 0x12AB JUMP JUMPDEST PUSH1 0x0 JUMPDEST DUP3 DUP2 LT ISZERO PUSH3 0x161E JUMPI DUP5 DUP10 ADD CALLDATALOAD DUP3 SSTORE PUSH1 0x1 DUP3 ADD SWAP2 POP PUSH1 0x20 DUP6 ADD SWAP5 POP PUSH1 0x20 DUP2 ADD SWAP1 POP PUSH3 0x15F7 JUMP JUMPDEST DUP7 DUP4 LT ISZERO PUSH3 0x163E JUMPI DUP5 DUP10 ADD CALLDATALOAD PUSH3 0x163A PUSH1 0x1F DUP10 AND DUP3 PUSH3 0x143F JUMP JUMPDEST DUP4 SSTORE POP JUMPDEST PUSH1 0x1 PUSH1 0x2 DUP9 MUL ADD DUP9 SSTORE POP POP POP JUMPDEST POP POP POP POP POP POP POP JUMP INVALID PUSH1 0x80 PUSH1 0x40 MSTORE CALLVALUE DUP1 ISZERO PUSH3 0x11 JUMPI PUSH1 0x0 DUP1 REVERT JUMPDEST POP PUSH1 0x40 MLOAD PUSH3 0x12D3 CODESIZE SUB DUP1 PUSH3 0x12D3 DUP4 CODECOPY DUP2 DUP2 ADD PUSH1 0x40 MSTORE DUP2 ADD SWAP1 PUSH3 0x37 SWAP2 SWAP1 PUSH3 0x328 JUMP JUMPDEST DUP3 PUSH1 0x3 SWAP1 DUP2 PUSH3 0x48 SWAP2 SWAP1 PUSH3 0x603 JUMP JUMPDEST POP DUP2 PUSH1 0x4 SWAP1 DUP2 PUSH3 0x5A SWAP2 SWAP1 PUSH3 0x603 JUMP JUMPDEST POP PUSH1 0x12 PUSH1 0x5 PUSH1 0x0 PUSH2 0x100 EXP DUP2 SLOAD DUP2 PUSH1 0xFF MUL NOT AND SWAP1 DUP4 PUSH1 0xFF AND MUL OR SWAP1 SSTORE POP DUP1 PUSH1 0x1 PUSH1 0x0 CALLER PUSH20 0xFFFFFFFFFFFFFFFFFFFFFFFFFFFFFFFFFFFFFFFF AND PUSH20 0xFFFFFFFFFFFFFFFFFFFFFFFFFFFFFFFFFFFFFFFF AND DUP2 MSTORE PUSH1 0x20 ADD SWAP1 DUP2 MSTORE PUSH1 0x20 ADD PUSH1 0x0 KECCAK256 PUSH1 0x0 DUP3 DUP3 SLOAD PUSH3 0xC8 SWAP2 SWAP1 PUSH3 0x719 JUMP JUMPDEST SWAP3 POP POP DUP2 SWAP1 SSTORE POP DUP1 PUSH1 0x0 DUP1 DUP3 DUP3 SLOAD PUSH3 0xE2 SWAP2 SWAP1 PUSH3 0x719 JUMP JUMPDEST SWAP3 POP POP DUP2 SWAP1 SSTORE POP CALLER PUSH20 0xFFFFFFFFFFFFFFFFFFFFFFFFFFFFFFFFFFFFFFFF AND PUSH1 0x0 PUSH20 0xFFFFFFFFFFFFFFFFFFFFFFFFFFFFFFFFFFFFFFFF AND PUSH32 0xDDF252AD1BE2C89B69C2B068FC378DAA952BA7F163C4A11628F55A4DF523B3EF DUP4 PUSH1 0x40 MLOAD PUSH3 0x149 SWAP2 SWAP1 PUSH3 0x765 JUMP JUMPDEST PUSH1 0x40 MLOAD DUP1 SWAP2 SUB SWAP1 LOG3 POP POP POP PUSH3 0x782 JUMP JUMPDEST PUSH1 0x0 PUSH1 0x40 MLOAD SWAP1 POP SWAP1 JUMP JUMPDEST PUSH1 0x0 DUP1 REVERT JUMPDEST PUSH1 0x0 DUP1 REVERT JUMPDEST PUSH1 0x0 DUP1 REVERT JUMPDEST PUSH1 0x0 DUP1 REVERT JUMPDEST PUSH1 0x0 PUSH1 0x1F NOT PUSH1 0x1F DUP4 ADD AND SWAP1 POP SWAP2 SWAP1 POP JUMP JUMPDEST PUSH32 0x4E487B7100000000000000000000000000000000000000000000000000000000 PUSH1 0x0 MSTORE PUSH1 0x41 PUSH1 0x4 MSTORE PUSH1 0x24 PUSH1 0x0 REVERT JUMPDEST PUSH3 0x1C3 DUP3 PUSH3 0x178 JUMP JUMPDEST DUP2 ADD DUP2 DUP2 LT PUSH8 0xFFFFFFFFFFFFFFFF DUP3 GT OR ISZERO PUSH3 0x1E5 JUMPI PUSH3 0x1E4 PUSH3 0x189 JUMP JUMPDEST JUMPDEST DUP1 PUSH1 0x40 MSTORE POP POP POP JUMP JUMPDEST PUSH1 0x0 PUSH3 0x1FA PUSH3 0x15A JUMP JUMPDEST SWAP1 POP PUSH3 0x208 DUP3 DUP3 PUSH3 0x1B8 JUMP JUMPDEST SWAP2 SWAP1 POP JUMP JUMPDEST PUSH1 0x0 PUSH8 0xFFFFFFFFFFFFFFFF DUP3 GT ISZERO PUSH3 0x22B JUMPI PUSH3 0x22A PUSH3 0x189 JUMP JUMPDEST JUMPDEST PUSH3 0x236 DUP3 PUSH3 0x178 JUMP JUMPDEST SWAP1 POP PUSH1 0x20 DUP2 ADD SWAP1 POP SWAP2 SWAP1 POP JUMP JUMPDEST PUSH1 0x0 JUMPDEST DUP4 DUP2 LT ISZERO PUSH3 0x263 JUMPI DUP1 DUP3 ADD MLOAD DUP2 DUP5 ADD MSTORE PUSH1 0x20 DUP2 ADD SWAP1 POP PUSH3 0x246 JUMP JUMPDEST PUSH1 0x0 DUP5 DUP5 ADD MSTORE POP POP POP POP JUMP JUMPDEST PUSH1 0x0 PUSH3 0x286 PUSH3 0x280 DUP5 PUSH3 0x20D JUMP JUMPDEST PUSH3 0x1EE JUMP JUMPDEST SWAP1 POP DUP3 DUP2 MSTORE PUSH1 0x20 DUP2 ADD DUP5 DUP5 DUP5 ADD GT ISZERO PUSH3 0x2A5 JUMPI PUSH3 0x2A4 PUSH3 0x173 JUMP JUMPDEST JUMPDEST PUSH3 0x2B2 DUP5 DUP3 DUP6 PUSH3 0x243 JUMP JUMPDEST POP SWAP4 SWAP3 POP POP POP JUMP JUMPDEST PUSH1 0x0 DUP3 PUSH1 0x1F DUP4 ADD SLT PUSH3 0x2D2 JUMPI PUSH3 0x2D1 PUSH3 0x16E JUMP JUMPDEST JUMPDEST DUP2 MLOAD PUSH3 0x2E4 DUP5 DUP3 PUSH1 0x20 DUP7 ADD PUSH3 0x26F JUMP JUMPDEST SWAP2 POP POP SWAP3 SWAP2 POP POP JUMP JUMPDEST PUSH1 0x0 DUP2 SWAP1 POP SWAP2 SWAP1 POP JUMP JUMPDEST PUSH3 0x302 DUP2 PUSH3 0x2ED JUMP JUMPDEST DUP2 EQ PUSH3 0x30E JUMPI PUSH1 0x0 DUP1 REVERT JUMPDEST POP JUMP JUMPDEST PUSH1 0x0 DUP2 MLOAD SWAP1 POP PUSH3 0x322 DUP2 PUSH3 0x2F7 JUMP JUMPDEST SWAP3 SWAP2 POP POP JUMP JUMPDEST PUSH1 0x0 DUP1 PUSH1 0x0 PUSH1 0x60 DUP5 DUP7 SUB SLT ISZERO PUSH3 0x344 JUMPI PUSH3 0x343 PUSH3 0x164 JUMP JUMPDEST JUMPDEST PUSH1 0x0 DUP5 ADD MLOAD PUSH8 0xFFFFFFFFFFFFFFFF DUP2 GT ISZERO PUSH3 0x365 JUMPI PUSH3 0x364 PUSH3 0x169 JUMP JUMPDEST JUMPDEST PUSH3 0x373 DUP7 DUP3 DUP8 ADD PUSH3 0x2BA JUMP JUMPDEST SWAP4 POP POP PUSH1 0x20 DUP5 ADD MLOAD PUSH8 0xFFFFFFFFFFFFFFFF DUP2 GT ISZERO PUSH3 0x397 JUMPI PUSH3 0x396 PUSH3 0x169 JUMP JUMPDEST JUMPDEST PUSH3 0x3A5 DUP7 DUP3 DUP8 ADD PUSH3 0x2BA JUMP JUMPDEST SWAP3 POP POP PUSH1 0x40 PUSH3 0x3B8 DUP7 DUP3 DUP8 ADD PUSH3 0x311 JUMP JUMPDEST SWAP2 POP POP SWAP3 POP SWAP3 POP SWAP3 JUMP JUMPDEST PUSH1 0x0 DUP2 MLOAD SWAP1 POP SWAP2 SWAP1 POP JUMP JUMPDEST PUSH32 0x4E487B7100000000000000000000000000000000000000000000000000000000 PUSH1 0x0 MSTORE PUSH1 0x22 PUSH1 0x4 MSTORE PUSH1 0x24 PUSH1 0x0 REVERT JUMPDEST PUSH1 0x0 PUSH1 0x2 DUP3 DIV SWAP1 POP PUSH1 0x1 DUP3 AND DUP1 PUSH3 0x415 JUMPI PUSH1 0x7F DUP3 AND SWAP2 POP JUMPDEST PUSH1 0x20 DUP3 LT DUP2 SUB PUSH3 0x42B JUMPI PUSH3 0x42A PUSH3 0x3CD JUMP JUMPDEST JUMPDEST POP SWAP2 SWAP1 POP JUMP JUMPDEST PUSH1 0x0 DUP2 SWAP1 POP DUP2 PUSH1 0x0 MSTORE PUSH1 0x20 PUSH1 0x0 KECCAK256 SWAP1 POP SWAP2 SWAP1 POP JUMP JUMPDEST PUSH1 0x0 PUSH1 0x20 PUSH1 0x1F DUP4 ADD DIV SWAP1 POP SWAP2 SWAP1 POP JUMP JUMPDEST PUSH1 0x0 DUP3 DUP3 SHL SWAP1 POP SWAP3 SWAP2 POP POP JUMP JUMPDEST PUSH1 0x0 PUSH1 0x8 DUP4 MUL PUSH3 0x495 PUSH32 0xFFFFFFFFFFFFFFFFFFFFFFFFFFFFFFFFFFFFFFFFFFFFFFFFFFFFFFFFFFFFFFFF DUP3 PUSH3 0x456 JUMP JUMPDEST PUSH3 0x4A1 DUP7 DUP4 PUSH3 0x456 JUMP JUMPDEST SWAP6 POP DUP1 NOT DUP5 AND SWAP4 POP DUP1 DUP7 AND DUP5 OR SWAP3 POP POP POP SWAP4 SWAP3 POP POP POP JUMP JUMPDEST PUSH1 0x0 DUP2 SWAP1 POP SWAP2 SWAP1 POP JUMP JUMPDEST PUSH1 0x0 PUSH3 0x4E4 PUSH3 0x4DE PUSH3 0x4D8 DUP5 PUSH3 0x2ED JUMP JUMPDEST PUSH3 0x4B9 JUMP JUMPDEST PUSH3 0x2ED JUMP JUMPDEST SWAP1 POP SWAP2 SWAP1 POP JUMP JUMPDEST PUSH1 0x0 DUP2 SWAP1 POP SWAP2 SWAP1 POP JUMP JUMPDEST PUSH3 0x500 DUP4 PUSH3 0x4C3 JUMP JUMPDEST PUSH3 0x518 PUSH3 0x50F DUP3 PUSH3 0x4EB JUMP JUMPDEST DUP5 DUP5 SLOAD PUSH3 0x463 JUMP JUMPDEST DUP3 SSTORE POP POP POP POP JUMP JUMPDEST PUSH1 0x0 SWAP1 JUMP JUMPDEST PUSH3 0x52F PUSH3 0x520 JUMP JUMPDEST PUSH3 0x53C DUP2 DUP5 DUP5 PUSH3 0x4F5 JUMP JUMPDEST POP POP POP JUMP JUMPDEST JUMPDEST DUP2 DUP2 LT ISZERO PUSH3 0x564 JUMPI PUSH3 0x558 PUSH1 0x0 DUP3 PUSH3 0x525 JUMP JUMPDEST PUSH1 0x1 DUP2 ADD SWAP1 POP PUSH3 0x542 JUMP JUMPDEST POP POP JUMP JUMPDEST PUSH1 0x1F DUP3 GT ISZERO PUSH3 0x5B3 JUMPI PUSH3 0x57D DUP2 PUSH3 0x431 JUMP JUMPDEST PUSH3 0x588 DUP5 PUSH3 0x446 JUMP JUMPDEST DUP2 ADD PUSH1 0x20 DUP6 LT ISZERO PUSH3 0x598 JUMPI DUP2 SWAP1 POP JUMPDEST PUSH3 0x5B0 PUSH3 0x5A7 DUP6 PUSH3 0x446 JUMP JUMPDEST DUP4 ADD DUP3 PUSH3 0x541 JUMP JUMPDEST POP POP JUMPDEST POP POP POP JUMP JUMPDEST PUSH1 0x0 DUP3 DUP3 SHR SWAP1 POP SWAP3 SWAP2 POP POP JUMP JUMPDEST PUSH1 0x0 PUSH3 0x5D8 PUSH1 0x0 NOT DUP5 PUSH1 0x8 MUL PUSH3 0x5B8 JUMP JUMPDEST NOT DUP1 DUP4 AND SWAP2 POP POP SWAP3 SWAP2 POP POP JUMP JUMPDEST PUSH1 0x0 PUSH3 0x5F3 DUP4 DUP4 PUSH3 0x5C5 JUMP JUMPDEST SWAP2 POP DUP3 PUSH1 0x2 MUL DUP3 OR SWAP1 POP SWAP3 SWAP2 POP POP JUMP JUMPDEST PUSH3 0x60E DUP3 PUSH3 0x3C2 JUMP JUMPDEST PUSH8 0xFFFFFFFFFFFFFFFF DUP2 GT ISZERO PUSH3 0x62A JUMPI PUSH3 0x629 PUSH3 0x189 JUMP JUMPDEST JUMPDEST PUSH3 0x636 DUP3 SLOAD PUSH3 0x3FC JUMP JUMPDEST PUSH3 0x643 DUP3 DUP3 DUP6 PUSH3 0x568 JUMP JUMPDEST PUSH1 0x0 PUSH1 0x20 SWAP1 POP PUSH1 0x1F DUP4 GT PUSH1 0x1 DUP2 EQ PUSH3 0x67B JUMPI PUSH1 0x0 DUP5 ISZERO PUSH3 0x666 JUMPI DUP3 DUP8 ADD MLOAD SWAP1 POP JUMPDEST PUSH3 0x672 DUP6 DUP3 PUSH3 0x5E5 JUMP JUMPDEST DUP7 SSTORE POP PUSH3 0x6E2 JUMP JUMPDEST PUSH1 0x1F NOT DUP5 AND PUSH3 0x68B DUP7 PUSH3 0x431 JUMP JUMPDEST PUSH1 0x0 JUMPDEST DUP3 DUP2 LT ISZERO PUSH3 0x6B5 JUMPI DUP5 DUP10 ADD MLOAD DUP3 SSTORE PUSH1 0x1 DUP3 ADD SWAP2 POP PUSH1 0x20 DUP6 ADD SWAP5 POP PUSH1 0x20 DUP2 ADD SWAP1 POP PUSH3 0x68E JUMP JUMPDEST DUP7 DUP4 LT ISZERO PUSH3 0x6D5 JUMPI DUP5 DUP10 ADD MLOAD PUSH3 0x6D1 PUSH1 0x1F DUP10 AND DUP3 PUSH3 0x5C5 JUMP JUMPDEST DUP4 SSTORE POP JUMPDEST PUSH1 0x1 PUSH1 0x2 DUP9 MUL ADD DUP9 SSTORE POP POP POP JUMPDEST POP POP POP POP POP POP JUMP JUMPDEST PUSH32 0x4E487B7100000000000000000000000000000000000000000000000000000000 PUSH1 0x0 MSTORE PUSH1 0x11 PUSH1 0x4 MSTORE PUSH1 0x24 PUSH1 0x0 REVERT JUMPDEST PUSH1 0x0 PUSH3 0x726 DUP3 PUSH3 0x2ED JUMP JUMPDEST SWAP2 POP PUSH3 0x733 DUP4 PUSH3 0x2ED JUMP JUMPDEST SWAP3 POP DUP3 DUP3 ADD SWAP1 POP DUP1 DUP3 GT ISZERO PUSH3 0x74E JUMPI PUSH3 0x74D PUSH3 0x6EA JUMP JUMPDEST JUMPDEST SWAP3 SWAP2 POP POP JUMP JUMPDEST PUSH3 0x75F DUP2 PUSH3 0x2ED JUMP JUMPDEST DUP3 MSTORE POP POP JUMP JUMPDEST PUSH1 0x0 PUSH1 0x20 DUP3 ADD SWAP1 POP PUSH3 0x77C PUSH1 0x0 DUP4 ADD DUP5 PUSH3 0x754 JUMP JUMPDEST SWAP3 SWAP2 POP POP JUMP JUMPDEST PUSH2 0xB41 DUP1 PUSH3 0x792 PUSH1 0x0 CODECOPY PUSH1 0x0 RETURN INVALID PUSH1 0x80 PUSH1 0x40 MSTORE CALLVALUE DUP1 ISZERO PUSH2 0x10 JUMPI PUSH1 0x0 DUP1 REVERT JUMPDEST POP PUSH1 0x4 CALLDATASIZE LT PUSH2 0x93 JUMPI PUSH1 0x0 CALLDATALOAD PUSH1 0xE0 SHR DUP1 PUSH4 0x313CE567 GT PUSH2 0x66 JUMPI DUP1 PUSH4 0x313CE567 EQ PUSH2 0x134 JUMPI DUP1 PUSH4 0x70A08231 EQ PUSH2 0x152 JUMPI DUP1 PUSH4 0x95D89B41 EQ PUSH2 0x182 JUMPI DUP1 PUSH4 0xA9059CBB EQ PUSH2 0x1A0 JUMPI DUP1 PUSH4 0xDD62ED3E EQ PUSH2 0x1D0 JUMPI PUSH2 0x93 JUMP JUMPDEST DUP1 PUSH4 0x6FDDE03 EQ PUSH2 0x98 JUMPI DUP1 PUSH4 0x95EA7B3 EQ PUSH2 0xB6 JUMPI DUP1 PUSH4 0x18160DDD EQ PUSH2 0xE6 JUMPI DUP1 PUSH4 0x23B872DD EQ PUSH2 0x104 JUMPI JUMPDEST PUSH1 0x0 DUP1 REVERT JUMPDEST PUSH2 0xA0 PUSH2 0x200 JUMP JUMPDEST PUSH1 0x40 MLOAD PUSH2 0xAD SWAP2 SWAP1 PUSH2 0x7C2 JUMP JUMPDEST PUSH1 0x40 MLOAD DUP1 SWAP2 SUB SWAP1 RETURN JUMPDEST PUSH2 0xD0 PUSH1 0x4 DUP1 CALLDATASIZE SUB DUP2 ADD SWAP1 PUSH2 0xCB SWAP2 SWAP1 PUSH2 0x87D JUMP JUMPDEST PUSH2 0x28E JUMP JUMPDEST PUSH1 0x40 MLOAD PUSH2 0xDD SWAP2 SWAP1 PUSH2 0x8D8 JUMP JUMPDEST PUSH1 0x40 MLOAD DUP1 SWAP2 SUB SWAP1 RETURN JUMPDEST PUSH2 0xEE PUSH2 0x380 JUMP JUMPDEST PUSH1 0x40 MLOAD PUSH2 0xFB SWAP2 SWAP1 PUSH2 0x902 JUMP JUMPDEST PUSH1 0x40 MLOAD DUP1 SWAP2 SUB SWAP1 RETURN JUMPDEST PUSH2 0x11E PUSH1 0x4 DUP1 CALLDATASIZE SUB DUP2 ADD SWAP1 PUSH2 0x119 SWAP2 SWAP1 PUSH2 0x91D JUMP JUMPDEST PUSH2 0x386 JUMP JUMPDEST PUSH1 0x40 MLOAD PUSH2 0x12B SWAP2 SWAP1 PUSH2 0x8D8 JUMP JUMPDEST PUSH1 0x40 MLOAD DUP1 SWAP2 SUB SWAP1 RETURN JUMPDEST PUSH2 0x13C PUSH2 0x537 JUMP JUMPDEST PUSH1 0x40 MLOAD PUSH2 0x149 SWAP2 SWAP1 PUSH2 0x98C JUMP JUMPDEST PUSH1 0x40 MLOAD DUP1 SWAP2 SUB SWAP1 RETURN JUMPDEST PUSH2 0x16C PUSH1 0x4 DUP1 CALLDATASIZE SUB DUP2 ADD SWAP1 PUSH2 0x167 SWAP2 SWAP1 PUSH2 0x9A7 JUMP JUMPDEST PUSH2 0x54A JUMP JUMPDEST PUSH1 0x40 MLOAD PUSH2 0x179 SWAP2 SWAP1 PUSH2 0x902 JUMP JUMPDEST PUSH1 0x40 MLOAD DUP1 SWAP2 SUB SWAP1 RETURN JUMPDEST PUSH2 0x18A PUSH2 0x562 JUMP JUMPDEST PUSH1 0x40 MLOAD PUSH2 0x197 SWAP2 SWAP1 PUSH2 0x7C2 JUMP JUMPDEST PUSH1 0x40 MLOAD DUP1 SWAP2 SUB SWAP1 RETURN JUMPDEST PUSH2 0x1BA PUSH1 0x4 DUP1 CALLDATASIZE SUB DUP2 ADD SWAP1 PUSH2 0x1B5 SWAP2 SWAP1 PUSH2 0x87D JUMP JUMPDEST PUSH2 0x5F0 JUMP JUMPDEST PUSH1 0x40 MLOAD PUSH2 0x1C7 SWAP2 SWAP1 PUSH2 0x8D8 JUMP JUMPDEST PUSH1 0x40 MLOAD DUP1 SWAP2 SUB SWAP1 RETURN JUMPDEST PUSH2 0x1EA PUSH1 0x4 DUP1 CALLDATASIZE SUB DUP2 ADD SWAP1 PUSH2 0x1E5 SWAP2 SWAP1 PUSH2 0x9D4 JUMP JUMPDEST PUSH2 0x70D JUMP JUMPDEST PUSH1 0x40 MLOAD PUSH2 0x1F7 SWAP2 SWAP1 PUSH2 0x902 JUMP JUMPDEST PUSH1 0x40 MLOAD DUP1 SWAP2 SUB SWAP1 RETURN JUMPDEST PUSH1 0x3 DUP1 SLOAD PUSH2 0x20D SWAP1 PUSH2 0xA43 JUMP JUMPDEST DUP1 PUSH1 0x1F ADD PUSH1 0x20 DUP1 SWAP2 DIV MUL PUSH1 0x20 ADD PUSH1 0x40 MLOAD SWAP1 DUP2 ADD PUSH1 0x40 MSTORE DUP1 SWAP3 SWAP2 SWAP1 DUP2 DUP2 MSTORE PUSH1 0x20 ADD DUP3 DUP1 SLOAD PUSH2 0x239 SWAP1 PUSH2 0xA43 JUMP JUMPDEST DUP1 ISZERO PUSH2 0x286 JUMPI DUP1 PUSH1 0x1F LT PUSH2 0x25B JUMPI PUSH2 0x100 DUP1 DUP4 SLOAD DIV MUL DUP4 MSTORE SWAP2 PUSH1 0x20 ADD SWAP2 PUSH2 0x286 JUMP JUMPDEST DUP3 ADD SWAP2 SWAP1 PUSH1 0x0 MSTORE PUSH1 0x20 PUSH1 0x0 KECCAK256 SWAP1 JUMPDEST DUP2 SLOAD DUP2 MSTORE SWAP1 PUSH1 0x1 ADD SWAP1 PUSH1 0x20 ADD DUP1 DUP4 GT PUSH2 0x269 JUMPI DUP3 SWAP1 SUB PUSH1 0x1F AND DUP3 ADD SWAP2 JUMPDEST POP POP POP POP POP DUP2 JUMP JUMPDEST PUSH1 0x0 DUP2 PUSH1 0x2 PUSH1 0x0 CALLER PUSH20 0xFFFFFFFFFFFFFFFFFFFFFFFFFFFFFFFFFFFFFFFF AND PUSH20 0xFFFFFFFFFFFFFFFFFFFFFFFFFFFFFFFFFFFFFFFF AND DUP2 MSTORE PUSH1 0x20 ADD SWAP1 DUP2 MSTORE PUSH1 0x20 ADD PUSH1 0x0 KECCAK256 PUSH1 0x0 DUP6 PUSH20 0xFFFFFFFFFFFFFFFFFFFFFFFFFFFFFFFFFFFFFFFF AND PUSH20 0xFFFFFFFFFFFFFFFFFFFFFFFFFFFFFFFFFFFFFFFF AND DUP2 MSTORE PUSH1 0x20 ADD SWAP1 DUP2 MSTORE PUSH1 0x20 ADD PUSH1 0x0 KECCAK256 DUP2 SWAP1 SSTORE POP DUP3 PUSH20 0xFFFFFFFFFFFFFFFFFFFFFFFFFFFFFFFFFFFFFFFF AND CALLER PUSH20 0xFFFFFFFFFFFFFFFFFFFFFFFFFFFFFFFFFFFFFFFF AND PUSH32 0x8C5BE1E5EBEC7D5BD14F71427D1E84F3DD0314C0F7B2291E5B200AC8C7C3B925 DUP5 PUSH1 0x40 MLOAD PUSH2 0x36E SWAP2 SWAP1 PUSH2 0x902 JUMP JUMPDEST PUSH1 0x40 MLOAD DUP1 SWAP2 SUB SWAP1 LOG3 PUSH1 0x1 SWAP1 POP SWAP3 SWAP2 POP POP JUMP JUMPDEST PUSH1 0x0 SLOAD DUP2 JUMP JUMPDEST PUSH1 0x0 DUP2 PUSH1 0x2 PUSH1 0x0 DUP7 PUSH20 0xFFFFFFFFFFFFFFFFFFFFFFFFFFFFFFFFFFFFFFFF AND PUSH20 0xFFFFFFFFFFFFFFFFFFFFFFFFFFFFFFFFFFFFFFFF AND DUP2 MSTORE PUSH1 0x20 ADD SWAP1 DUP2 MSTORE PUSH1 0x20 ADD PUSH1 0x0 KECCAK256 PUSH1 0x0 CALLER PUSH20 0xFFFFFFFFFFFFFFFFFFFFFFFFFFFFFFFFFFFFFFFF AND PUSH20 0xFFFFFFFFFFFFFFFFFFFFFFFFFFFFFFFFFFFFFFFF AND DUP2 MSTORE PUSH1 0x20 ADD SWAP1 DUP2 MSTORE PUSH1 0x20 ADD PUSH1 0x0 KECCAK256 PUSH1 0x0 DUP3 DUP3 SLOAD PUSH2 0x414 SWAP2 SWAP1 PUSH2 0xAA3 JUMP JUMPDEST SWAP3 POP POP DUP2 SWAP1 SSTORE POP DUP2 PUSH1 0x1 PUSH1 0x0 DUP7 PUSH20 0xFFFFFFFFFFFFFFFFFFFFFFFFFFFFFFFFFFFFFFFF AND PUSH20 0xFFFFFFFFFFFFFFFFFFFFFFFFFFFFFFFFFFFFFFFF AND DUP2 MSTORE PUSH1 0x20 ADD SWAP1 DUP2 MSTORE PUSH1 0x20 ADD PUSH1 0x0 KECCAK256 PUSH1 0x0 DUP3 DUP3 SLOAD PUSH2 0x46A SWAP2 SWAP1 PUSH2 0xAA3 JUMP JUMPDEST SWAP3 POP POP DUP2 SWAP1 SSTORE POP DUP2 PUSH1 0x1 PUSH1 0x0 DUP6 PUSH20 0xFFFFFFFFFFFFFFFFFFFFFFFFFFFFFFFFFFFFFFFF AND PUSH20 0xFFFFFFFFFFFFFFFFFFFFFFFFFFFFFFFFFFFFFFFF AND DUP2 MSTORE PUSH1 0x20 ADD SWAP1 DUP2 MSTORE PUSH1 0x20 ADD PUSH1 0x0 KECCAK256 PUSH1 0x0 DUP3 DUP3 SLOAD PUSH2 0x4C0 SWAP2 SWAP1 PUSH2 0xAD7 JUMP JUMPDEST SWAP3 POP POP DUP2 SWAP1 SSTORE POP DUP3 PUSH20 0xFFFFFFFFFFFFFFFFFFFFFFFFFFFFFFFFFFFFFFFF AND DUP5 PUSH20 0xFFFFFFFFFFFFFFFFFFFFFFFFFFFFFFFFFFFFFFFF AND PUSH32 0xDDF252AD1BE2C89B69C2B068FC378DAA952BA7F163C4A11628F55A4DF523B3EF DUP5 PUSH1 0x40 MLOAD PUSH2 0x524 SWAP2 SWAP1 PUSH2 0x902 JUMP JUMPDEST PUSH1 0x40 MLOAD DUP1 SWAP2 SUB SWAP1 LOG3 PUSH1 0x1 SWAP1 POP SWAP4 SWAP3 POP POP POP JUMP JUMPDEST PUSH1 0x5 PUSH1 0x0 SWAP1 SLOAD SWAP1 PUSH2 0x100 EXP SWAP1 DIV PUSH1 0xFF AND DUP2 JUMP JUMPDEST PUSH1 0x1 PUSH1 0x20 MSTORE DUP1 PUSH1 0x0 MSTORE PUSH1 0x40 PUSH1 0x0 KECCAK256 PUSH1 0x0 SWAP2 POP SWAP1 POP SLOAD DUP2 JUMP JUMPDEST PUSH1 0x4 DUP1 SLOAD PUSH2 0x56F SWAP1 PUSH2 0xA43 JUMP JUMPDEST DUP1 PUSH1 0x1F ADD PUSH1 0x20 DUP1 SWAP2 DIV MUL PUSH1 0x20 ADD PUSH1 0x40 MLOAD SWAP1 DUP2 ADD PUSH1 0x40 MSTORE DUP1 SWAP3 SWAP2 SWAP1 DUP2 DUP2 MSTORE PUSH1 0x20 ADD DUP3 DUP1 SLOAD PUSH2 0x59B SWAP1 PUSH2 0xA43 JUMP JUMPDEST DUP1 ISZERO PUSH2 0x5E8 JUMPI DUP1 PUSH1 0x1F LT PUSH2 0x5BD JUMPI PUSH2 0x100 DUP1 DUP4 SLOAD DIV MUL DUP4 MSTORE SWAP2 PUSH1 0x20 ADD SWAP2 PUSH2 0x5E8 JUMP JUMPDEST DUP3 ADD SWAP2 SWAP1 PUSH1 0x0 MSTORE PUSH1 0x20 PUSH1 0x0 KECCAK256 SWAP1 JUMPDEST DUP2 SLOAD DUP2 MSTORE SWAP1 PUSH1 0x1 ADD SWAP1 PUSH1 0x20 ADD DUP1 DUP4 GT PUSH2 0x5CB JUMPI DUP3 SWAP1 SUB PUSH1 0x1F AND DUP3 ADD SWAP2 JUMPDEST POP POP POP POP POP DUP2 JUMP JUMPDEST PUSH1 0x0 DUP2 PUSH1 0x1 PUSH1 0x0 CALLER PUSH20 0xFFFFFFFFFFFFFFFFFFFFFFFFFFFFFFFFFFFFFFFF AND PUSH20 0xFFFFFFFFFFFFFFFFFFFFFFFFFFFFFFFFFFFFFFFF AND DUP2 MSTORE PUSH1 0x20 ADD SWAP1 DUP2 MSTORE PUSH1 0x20 ADD PUSH1 0x0 KECCAK256 PUSH1 0x0 DUP3 DUP3 SLOAD PUSH2 0x641 SWAP2 SWAP1 PUSH2 0xAA3 JUMP JUMPDEST SWAP3 POP POP DUP2 SWAP1 SSTORE POP DUP2 PUSH1 0x1 PUSH1 0x0 DUP6 PUSH20 0xFFFFFFFFFFFFFFFFFFFFFFFFFFFFFFFFFFFFFFFF AND PUSH20 0xFFFFFFFFFFFFFFFFFFFFFFFFFFFFFFFFFFFFFFFF AND DUP2 MSTORE PUSH1 0x20 ADD SWAP1 DUP2 MSTORE PUSH1 0x20 ADD PUSH1 0x0 KECCAK256 PUSH1 0x0 DUP3 DUP3 SLOAD PUSH2 0x697 SWAP2 SWAP1 PUSH2 0xAD7 JUMP JUMPDEST SWAP3 POP POP DUP2 SWAP1 SSTORE POP DUP3 PUSH20 0xFFFFFFFFFFFFFFFFFFFFFFFFFFFFFFFFFFFFFFFF AND CALLER PUSH20 0xFFFFFFFFFFFFFFFFFFFFFFFFFFFFFFFFFFFFFFFF AND PUSH32 0xDDF252AD1BE2C89B69C2B068FC378DAA952BA7F163C4A11628F55A4DF523B3EF DUP5 PUSH1 0x40 MLOAD PUSH2 0x6FB SWAP2 SWAP1 PUSH2 0x902 JUMP JUMPDEST PUSH1 0x40 MLOAD DUP1 SWAP2 SUB SWAP1 LOG3 PUSH1 0x1 SWAP1 POP SWAP3 SWAP2 POP POP JUMP JUMPDEST PUSH1 0x2 PUSH1 0x20 MSTORE DUP2 PUSH1 0x0 MSTORE PUSH1 0x40 PUSH1 0x0 KECCAK256 PUSH1 0x20 MSTORE DUP1 PUSH1 0x0 MSTORE PUSH1 0x40 PUSH1 0x0 KECCAK256 PUSH1 0x0 SWAP2 POP SWAP2 POP POP SLOAD DUP2 JUMP JUMPDEST PUSH1 0x0 DUP2 MLOAD SWAP1 POP SWAP2 SWAP1 POP JUMP JUMPDEST PUSH1 0x0 DUP3 DUP3 MSTORE PUSH1 0x20 DUP3 ADD SWAP1 POP SWAP3 SWAP2 POP POP JUMP JUMPDEST PUSH1 0x0 JUMPDEST DUP4 DUP2 LT ISZERO PUSH2 0x76C JUMPI DUP1 DUP3 ADD MLOAD DUP2 DUP5 ADD MSTORE PUSH1 0x20 DUP2 ADD SWAP1 POP PUSH2 0x751 JUMP JUMPDEST PUSH1 0x0 DUP5 DUP5 ADD MSTORE POP POP POP POP JUMP JUMPDEST PUSH1 0x0 PUSH1 0x1F NOT PUSH1 0x1F DUP4 ADD AND SWAP1 POP SWAP2 SWAP1 POP JUMP JUMPDEST PUSH1 0x0 PUSH2 0x794 DUP3 PUSH2 0x732 JUMP JUMPDEST PUSH2 0x79E DUP2 DUP6 PUSH2 0x73D JUMP JUMPDEST SWAP4 POP PUSH2 0x7AE DUP2 DUP6 PUSH1 0x20 DUP7 ADD PUSH2 0x74E JUMP JUMPDEST PUSH2 0x7B7 DUP2 PUSH2 0x778 JUMP JUMPDEST DUP5 ADD SWAP2 POP POP SWAP3 SWAP2 POP POP JUMP JUMPDEST PUSH1 0x0 PUSH1 0x20 DUP3 ADD SWAP1 POP DUP2 DUP2 SUB PUSH1 0x0 DUP4 ADD MSTORE PUSH2 0x7DC DUP2 DUP5 PUSH2 0x789 JUMP JUMPDEST SWAP1 POP SWAP3 SWAP2 POP POP JUMP JUMPDEST PUSH1 0x0 DUP1 REVERT JUMPDEST PUSH1 0x0 PUSH20 0xFFFFFFFFFFFFFFFFFFFFFFFFFFFFFFFFFFFFFFFF DUP3 AND SWAP1 POP SWAP2 SWAP1 POP JUMP JUMPDEST PUSH1 0x0 PUSH2 0x814 DUP3 PUSH2 0x7E9 JUMP JUMPDEST SWAP1 POP SWAP2 SWAP1 POP JUMP JUMPDEST PUSH2 0x824 DUP2 PUSH2 0x809 JUMP JUMPDEST DUP2 EQ PUSH2 0x82F JUMPI PUSH1 0x0 DUP1 REVERT JUMPDEST POP JUMP JUMPDEST PUSH1 0x0 DUP2 CALLDATALOAD SWAP1 POP PUSH2 0x841 DUP2 PUSH2 0x81B JUMP JUMPDEST SWAP3 SWAP2 POP POP JUMP JUMPDEST PUSH1 0x0 DUP2 SWAP1 POP SWAP2 SWAP1 POP JUMP JUMPDEST PUSH2 0x85A DUP2 PUSH2 0x847 JUMP JUMPDEST DUP2 EQ PUSH2 0x865 JUMPI PUSH1 0x0 DUP1 REVERT JUMPDEST POP JUMP JUMPDEST PUSH1 0x0 DUP2 CALLDATALOAD SWAP1 POP PUSH2 0x877 DUP2 PUSH2 0x851 JUMP JUMPDEST SWAP3 SWAP2 POP POP JUMP JUMPDEST PUSH1 0x0 DUP1 PUSH1 0x40 DUP4 DUP6 SUB SLT ISZERO PUSH2 0x894 JUMPI PUSH2 0x893 PUSH2 0x7E4 JUMP JUMPDEST JUMPDEST PUSH1 0x0 PUSH2 0x8A2 DUP6 DUP3 DUP7 ADD PUSH2 0x832 JUMP JUMPDEST SWAP3 POP POP PUSH1 0x20 PUSH2 0x8B3 DUP6 DUP3 DUP7 ADD PUSH2 0x868 JUMP JUMPDEST SWAP2 POP POP SWAP3 POP SWAP3 SWAP1 POP JUMP JUMPDEST PUSH1 0x0 DUP2 ISZERO ISZERO SWAP1 POP SWAP2 SWAP1 POP JUMP JUMPDEST PUSH2 0x8D2 DUP2 PUSH2 0x8BD JUMP JUMPDEST DUP3 MSTORE POP POP JUMP JUMPDEST PUSH1 0x0 PUSH1 0x20 DUP3 ADD SWAP1 POP PUSH2 0x8ED PUSH1 0x0 DUP4 ADD DUP5 PUSH2 0x8C9 JUMP JUMPDEST SWAP3 SWAP2 POP POP JUMP JUMPDEST PUSH2 0x8FC DUP2 PUSH2 0x847 JUMP JUMPDEST DUP3 MSTORE POP POP JUMP JUMPDEST PUSH1 0x0 PUSH1 0x20 DUP3 ADD SWAP1 POP PUSH2 0x917 PUSH1 0x0 DUP4 ADD DUP5 PUSH2 0x8F3 JUMP JUMPDEST SWAP3 SWAP2 POP POP JUMP JUMPDEST PUSH1 0x0 DUP1 PUSH1 0x0 PUSH1 0x60 DUP5 DUP7 SUB SLT ISZERO PUSH2 0x936 JUMPI PUSH2 0x935 PUSH2 0x7E4 JUMP JUMPDEST JUMPDEST PUSH1 0x0 PUSH2 0x944 DUP7 DUP3 DUP8 ADD PUSH2 0x832 JUMP JUMPDEST SWAP4 POP POP PUSH1 0x20 PUSH2 0x955 DUP7 DUP3 DUP8 ADD PUSH2 0x832 JUMP JUMPDEST SWAP3 POP POP PUSH1 0x40 PUSH2 0x966 DUP7 DUP3 DUP8 ADD PUSH2 0x868 JUMP JUMPDEST SWAP2 POP POP SWAP3 POP SWAP3 POP SWAP3 JUMP JUMPDEST PUSH1 0x0 PUSH1 0xFF DUP3 AND SWAP1 POP SWAP2 SWAP1 POP JUMP JUMPDEST PUSH2 0x986 DUP2 PUSH2 0x970 JUMP JUMPDEST DUP3 MSTORE POP POP JUMP JUMPDEST PUSH1 0x0 PUSH1 0x20 DUP3 ADD SWAP1 POP PUSH2 0x9A1 PUSH1 0x0 DUP4 ADD DUP5 PUSH2 0x97D JUMP JUMPDEST SWAP3 SWAP2 POP POP JUMP JUMPDEST PUSH1 0x0 PUSH1 0x20 DUP3 DUP5 SUB SLT ISZERO PUSH2 0x9BD JUMPI PUSH2 0x9BC PUSH2 0x7E4 JUMP JUMPDEST JUMPDEST PUSH1 0x0 PUSH2 0x9CB DUP5 DUP3 DUP6 ADD PUSH2 0x832 JUMP JUMPDEST SWAP2 POP POP SWAP3 SWAP2 POP POP JUMP JUMPDEST PUSH1 0x0 DUP1 PUSH1 0x40 DUP4 DUP6 SUB SLT ISZERO PUSH2 0x9EB JUMPI PUSH2 0x9EA PUSH2 0x7E4 JUMP JUMPDEST JUMPDEST PUSH1 0x0 PUSH2 0x9F9 DUP6 DUP3 DUP7 ADD PUSH2 0x832 JUMP JUMPDEST SWAP3 POP POP PUSH1 0x20 PUSH2 0xA0A DUP6 DUP3 DUP7 ADD PUSH2 0x832 JUMP JUMPDEST SWAP2 POP POP SWAP3 POP SWAP3 SWAP1 POP JUMP JUMPDEST PUSH32 0x4E487B7100000000000000000000000000000000000000000000000000000000 PUSH1 0x0 MSTORE PUSH1 0x22 PUSH1 0x4 MSTORE PUSH1 0x24 PUSH1 0x0 REVERT JUMPDEST PUSH1 0x0 PUSH1 0x2 DUP3 DIV SWAP1 POP PUSH1 0x1 DUP3 AND DUP1 PUSH2 0xA5B JUMPI PUSH1 0x7F DUP3 AND SWAP2 POP JUMPDEST PUSH1 0x20 DUP3 LT DUP2 SUB PUSH2 0xA6E JUMPI PUSH2 0xA6D PUSH2 0xA14 JUMP JUMPDEST JUMPDEST POP SWAP2 SWAP1 POP JUMP JUMPDEST PUSH32 0x4E487B7100000000000000000000000000000000000000000000000000000000 PUSH1 0x0 MSTORE PUSH1 0x11 PUSH1 0x4 MSTORE PUSH1 0x24 PUSH1 0x0 REVERT JUMPDEST PUSH1 0x0 PUSH2 0xAAE DUP3 PUSH2 0x847 JUMP JUMPDEST SWAP2 POP PUSH2 0xAB9 DUP4 PUSH2 0x847 JUMP JUMPDEST SWAP3 POP DUP3 DUP3 SUB SWAP1 POP DUP2 DUP2 GT ISZERO PUSH2 0xAD1 JUMPI PUSH2 0xAD0 PUSH2 0xA74 JUMP JUMPDEST JUMPDEST SWAP3 SWAP2 POP POP JUMP JUMPDEST PUSH1 0x0 PUSH2 0xAE2 DUP3 PUSH2 0x847 JUMP JUMPDEST SWAP2 POP PUSH2 0xAED DUP4 PUSH2 0x847 JUMP JUMPDEST SWAP3 POP DUP3 DUP3 ADD SWAP1 POP DUP1 DUP3 GT ISZERO PUSH2 0xB05 JUMPI PUSH2 0xB04 PUSH2 0xA74 JUMP JUMPDEST JUMPDEST SWAP3 SWAP2 POP POP JUMP INVALID LOG2 PUSH5 0x6970667358 0x22 SLT KECCAK256 DIV SUB PUSH21 0x7DB97A86D693C42FB1456965BAA8A496A14ADA8BAD SWAP15 0xAB CALLCODE DUP11 0xF9 0xED 0x2E STOP PUSH5 0x736F6C6343 STOP ADDMOD XOR STOP CALLER LOG2 PUSH5 0x6970667358 0x22 SLT KECCAK256 XOR 0xD1 0xD6 SWAP8 0xF6 0xB8 DUP8 PREVRANDAO PUSH14 0xCBC5F273BA5E8B0BB6E1F14E0579 0xCA 0xD3 LOG1 AND 0xAF 0xB8 MOD 0x1E 0xC2 PUSH5 0x736F6C6343 STOP ADDMOD XOR STOP CALLER "},"methodIdentifiers":{"claim(address)":"1e83409a","claimable(address,address)":"d4570c1c","closeEpoch((address,address[],uint256[])[])":"21dead79","createTokenAndStartCampaign(string,string,uint256,string,uint256,uint256)":"c8a84f87","launch(address)":"214013ca"}}}}}