{
  "_format": "hh-sol-artifact-1",
  "contractName": "ShillCore",
  "sourceName": "contracts/ShillCore.sol",
  "abi": [
    {
      "inputs": [],
      "stateMutability": "nonpayable",
      "type": "constructor"
    },
    {
      "inputs": [
        {
          "internalType": "contract Token",
          "name": "token",
          "type": "address"
        }
      ],
      "name": "claim",
      "outputs": [],
      "stateMutability": "nonpayable",
      "type": "function"
    },
    {
      "inputs": [
        {
          "internalType": "contract Token",
          "name": "token",
          "type": "address"
        }
      ],
      "name": "claimable",
      "outputs": [
        {
          "components": [
            {
              "internalType": "uint256",
              "name": "nativeReserve",
              "type": "uint256"
            },
            {
              "internalType": "uint256",
              "name": "tokenReserve",
              "type": "uint256"
            }
          ],
          "internalType": "struct ShillCore.Reserves",
          "name": "",
          "type": "tuple"
        }
      ],
      "stateMutability": "view",
      "type": "function"
    },
    {
      "inputs": [
        {
          "components": [
            {
              "internalType": "contract Token",
              "name": "token",
              "type": "address"
            },
            {
              "internalType": "address[]",
              "name": "shillers",
              "type": "address[]"
            },
            {
              "components": [
                {
                  "internalType": "uint256",
                  "name": "nativeReserve",
                  "type": "uint256"
                },
                {
                  "internalType": "uint256",
                  "name": "tokenReserve",
                  "type": "uint256"
                }
              ],
              "internalType": "struct ShillCore.Reserves[]",
              "name": "rewards",
              "type": "tuple[]"
            }
          ],
          "internalType": "struct ShillCore.EpochResults[]",
          "name": "results",
          "type": "tuple[]"
        }
      ],
      "name": "closeEpoch",
      "outputs": [],
      "stateMutability": "nonpayable",
      "type": "function"
    },
    {
      "inputs": [
        {
          "internalType": "string",
          "name": "name",
          "type": "string"
        },
        {
          "internalType": "string",
          "name": "symbol",
          "type": "string"
        },
        {
          "internalType": "uint256",
          "name": "supply",
          "type": "uint256"
        },
        {
          "internalType": "string",
          "name": "handle",
          "type": "string"
        },
        {
          "internalType": "uint256",
          "name": "tokenLiquidity",
          "type": "uint256"
        },
        {
          "internalType": "uint256",
          "name": "shillReserve",
          "type": "uint256"
        }
      ],
      "name": "createTokenAndStartCampaign",
      "outputs": [],
      "stateMutability": "payable",
      "type": "function"
    },
    {
      "inputs": [],
      "name": "getCampaigns",
      "outputs": [
        {
          "components": [
            {
              "internalType": "string",
              "name": "name",
              "type": "string"
            },
            {
              "internalType": "string",
              "name": "handle",
              "type": "string"
            },
            {
              "components": [
                {
                  "internalType": "uint256",
                  "name": "nativeReserve",
                  "type": "uint256"
                },
                {
                  "internalType": "uint256",
                  "name": "tokenReserve",
                  "type": "uint256"
                }
              ],
              "internalType": "struct ShillCore.Reserves",
              "name": "reserves",
              "type": "tuple"
            }
          ],
          "internalType": "struct ShillCore.Campaign[]",
          "name": "",
          "type": "tuple[]"
        }
      ],
      "stateMutability": "view",
      "type": "function"
    },
    {
      "inputs": [
        {
          "internalType": "contract Token",
          "name": "token",
          "type": "address"
        }
      ],
      "name": "launch",
      "outputs": [],
      "stateMutability": "nonpayable",
      "type": "function"
    }
  ],
  "bytecode": "0x608060405234801561001057600080fd5b50336000806101000a81548173ffffffffffffffffffffffffffffffffffffffff021916908373ffffffffffffffffffffffffffffffffffffffff160217905550613067806100606000396000f3fe6080604052600436106200005c5760003560e01c80631e83409a1462000061578063214013ca146200008f578063402914f514620000bd578063a6b036331462000101578063c8a84f871462000131578063fc4d70501462000151575b600080fd5b3480156200006e57600080fd5b506200008d600480360381019062000087919062000cc6565b6200017f565b005b3480156200009c57600080fd5b50620000bb6004803603810190620000b5919062000cc6565b62000409565b005b348015620000ca57600080fd5b50620000e96004803603810190620000e3919062000cc6565b6200040c565b604051620000f8919062000d46565b60405180910390f35b3480156200010e57600080fd5b5062000119620004b8565b60405162000128919062000f5d565b60405180910390f35b6200014f60048036038101906200014991906200116c565b6200074d565b005b3480156200015e57600080fd5b506200017d6004803603810190620001779190620012ca565b6200094e565b005b6000600460008373ffffffffffffffffffffffffffffffffffffffff1673ffffffffffffffffffffffffffffffffffffffff16815260200190815260200160002060003373ffffffffffffffffffffffffffffffffffffffff1673ffffffffffffffffffffffffffffffffffffffff168152602001908152602001600020905060008160000154118062000217575060008160010154115b62000259576040517f08c379a0000000000000000000000000000000000000000000000000000000008152600401620002509062001380565b60405180910390fd5b3373ffffffffffffffffffffffffffffffffffffffff166108fc82600001549081150290604051600060405180830381858888f19350505050158015620002a4573d6000803e3d6000fd5b508173ffffffffffffffffffffffffffffffffffffffff1663a9059cbb3383600101546040518363ffffffff1660e01b8152600401620002e6929190620013c4565b6020604051808303816000875af115801562000306573d6000803e3d6000fd5b505050506040513d601f19601f820116820180604052508101906200032c91906200142e565b508060000154600160008473ffffffffffffffffffffffffffffffffffffffff1673ffffffffffffffffffffffffffffffffffffffff16815260200190815260200160002060020160000160008282546200038891906200148f565b925050819055508060010154600160008473ffffffffffffffffffffffffffffffffffffffff1673ffffffffffffffffffffffffffffffffffffffff1681526020019081526020016000206002016001016000828254620003ea91906200148f565b9250508190555060008160000181905550600081600101819055505050565b50565b6200041662000be8565b600460008373ffffffffffffffffffffffffffffffffffffffff1673ffffffffffffffffffffffffffffffffffffffff16815260200190815260200160002060003373ffffffffffffffffffffffffffffffffffffffff1673ffffffffffffffffffffffffffffffffffffffff168152602001908152602001600020604051806040016040529081600082015481526020016001820154815250509050919050565b6060600060038054905067ffffffffffffffff811115620004de57620004dd62000f8b565b5b6040519080825280602002602001820160405280156200051b57816020015b6200050762000c02565b815260200190600190039081620004fd5790505b50905060005b600380549050811015620007455760016000600383815481106200054a5762000549620014ca565b5b9060005260206000200160009054906101000a900473ffffffffffffffffffffffffffffffffffffffff1673ffffffffffffffffffffffffffffffffffffffff1673ffffffffffffffffffffffffffffffffffffffff168152602001908152602001600020604051806060016040529081600082018054620005cc9062001528565b80601f0160208091040260200160405190810160405280929190818152602001828054620005fa9062001528565b80156200064b5780601f106200061f576101008083540402835291602001916200064b565b820191906000526020600020905b8154815290600101906020018083116200062d57829003601f168201915b50505050508152602001600182018054620006669062001528565b80601f0160208091040260200160405190810160405280929190818152602001828054620006949062001528565b8015620006e55780601f10620006b957610100808354040283529160200191620006e5565b820191906000526020600020905b815481529060010190602001808311620006c757829003601f168201915b505050505081526020016002820160405180604001604052908160008201548152602001600182015481525050815250508282815181106200072c576200072b620014ca565b5b6020026020010181905250808060010191505062000521565b508091505090565b6000878787604051620007609062000c2b565b6200076e939291906200159e565b604051809103906000f0801580156200078b573d6000803e3d6000fd5b5090506003819080600181540180825580915050600190039060005260206000200160009091909190916101000a81548173ffffffffffffffffffffffffffffffffffffffff021916908373ffffffffffffffffffffffffffffffffffffffff1602179055506000600160008373ffffffffffffffffffffffffffffffffffffffff1673ffffffffffffffffffffffffffffffffffffffff16815260200190815260200160002090508173ffffffffffffffffffffffffffffffffffffffff166306fdde036040518163ffffffff1660e01b8152600401600060405180830381865afa15801562000880573d6000803e3d6000fd5b505050506040513d6000823e3d601f19601f82011682018060405250810190620008ab919062001667565b816000019081620008bd91906200188a565b508585826001019182620008d39291906200197c565b50600081600201600001819055508281600201600101819055506000600260008473ffffffffffffffffffffffffffffffffffffffff1673ffffffffffffffffffffffffffffffffffffffff168152602001908152602001600020905034816000018190555084816001018190555050505050505050505050565b60008054906101000a900473ffffffffffffffffffffffffffffffffffffffff1673ffffffffffffffffffffffffffffffffffffffff163373ffffffffffffffffffffffffffffffffffffffff1614620009df576040517f08c379a0000000000000000000000000000000000000000000000000000000008152600401620009d69062001ad7565b60405180910390fd5b60005b8282905081101562000be357600083838381811062000a065762000a05620014ca565b5b905060200281019062000a1a919062001b08565b600001602081019062000a2e919062000cc6565b905060005b84848481811062000a495762000a48620014ca565b5b905060200281019062000a5d919062001b08565b806020019062000a6e919062001b33565b905081101562000bd357600085858581811062000a905762000a8f620014ca565b5b905060200281019062000aa4919062001b08565b806020019062000ab5919062001b33565b8381811062000ac95762000ac8620014ca565b5b905060200201602081019062000ae0919062001bd0565b905085858581811062000af85762000af7620014ca565b5b905060200281019062000b0c919062001b08565b806040019062000b1d919062001c02565b8381811062000b315762000b30620014ca565b5b905060400201600460008573ffffffffffffffffffffffffffffffffffffffff1673ffffffffffffffffffffffffffffffffffffffff16815260200190815260200160002060008373ffffffffffffffffffffffffffffffffffffffff1673ffffffffffffffffffffffffffffffffffffffff168152602001908152602001600020818162000bc1919062001d4e565b90505050808060010191505062000a33565b50508080600101915050620009e2565b505050565b604051806040016040528060008152602001600081525090565b6040518060600160405280606081526020016060815260200162000c2562000be8565b81525090565b6112d38062001d5f83390190565b6000604051905090565b600080fd5b600080fd5b600073ffffffffffffffffffffffffffffffffffffffff82169050919050565b600062000c7a8262000c4d565b9050919050565b600062000c8e8262000c6d565b9050919050565b62000ca08162000c81565b811462000cac57600080fd5b50565b60008135905062000cc08162000c95565b92915050565b60006020828403121562000cdf5762000cde62000c43565b5b600062000cef8482850162000caf565b91505092915050565b6000819050919050565b62000d0d8162000cf8565b82525050565b60408201600082015162000d2b600085018262000d02565b50602082015162000d40602085018262000d02565b50505050565b600060408201905062000d5d600083018462000d13565b92915050565b600081519050919050565b600082825260208201905092915050565b6000819050602082019050919050565b600081519050919050565b600082825260208201905092915050565b60005b8381101562000dcb57808201518184015260208101905062000dae565b60008484015250505050565b6000601f19601f8301169050919050565b600062000df58262000d8f565b62000e01818562000d9a565b935062000e1381856020860162000dab565b62000e1e8162000dd7565b840191505092915050565b60408201600082015162000e41600085018262000d02565b50602082015162000e56602085018262000d02565b50505050565b6000608083016000830151848203600086015262000e7b828262000de8565b9150506020830151848203602086015262000e97828262000de8565b915050604083015162000eae604086018262000e29565b508091505092915050565b600062000ec7838362000e5c565b905092915050565b6000602082019050919050565b600062000ee98262000d63565b62000ef5818562000d6e565b93508360208202850162000f098562000d7f565b8060005b8581101562000f4b578484038952815162000f29858262000eb9565b945062000f368362000ecf565b925060208a0199505060018101905062000f0d565b50829750879550505050505092915050565b6000602082019050818103600083015262000f79818462000edc565b905092915050565b600080fd5b600080fd5b7f4e487b7100000000000000000000000000000000000000000000000000000000600052604160045260246000fd5b62000fc58262000dd7565b810181811067ffffffffffffffff8211171562000fe75762000fe662000f8b565b5b80604052505050565b600062000ffc62000c39565b90506200100a828262000fba565b919050565b600067ffffffffffffffff8211156200102d576200102c62000f8b565b5b620010388262000dd7565b9050602081019050919050565b82818337600083830152505050565b60006200106b62001065846200100f565b62000ff0565b9050828152602081018484840111156200108a576200108962000f86565b5b6200109784828562001045565b509392505050565b600082601f830112620010b757620010b662000f81565b5b8135620010c984826020860162001054565b91505092915050565b620010dd8162000cf8565b8114620010e957600080fd5b50565b600081359050620010fd81620010d2565b92915050565b600080fd5b600080fd5b60008083601f84011262001126576200112562000f81565b5b8235905067ffffffffffffffff81111562001146576200114562001103565b5b60208301915083600182028301111562001165576200116462001108565b5b9250929050565b600080600080600080600060c0888a0312156200118e576200118d62000c43565b5b600088013567ffffffffffffffff811115620011af57620011ae62000c48565b5b620011bd8a828b016200109f565b975050602088013567ffffffffffffffff811115620011e157620011e062000c48565b5b620011ef8a828b016200109f565b9650506040620012028a828b01620010ec565b955050606088013567ffffffffffffffff81111562001226576200122562000c48565b5b620012348a828b016200110d565b94509450506080620012498a828b01620010ec565b92505060a06200125c8a828b01620010ec565b91505092959891949750929550565b60008083601f84011262001284576200128362000f81565b5b8235905067ffffffffffffffff811115620012a457620012a362001103565b5b602083019150836020820283011115620012c357620012c262001108565b5b9250929050565b60008060208385031215620012e457620012e362000c43565b5b600083013567ffffffffffffffff81111562001305576200130462000c48565b5b62001313858286016200126b565b92509250509250929050565b600082825260208201905092915050565b7f4e6f207265776172647320746f20636c61696d00000000000000000000000000600082015250565b6000620013686013836200131f565b9150620013758262001330565b602082019050919050565b600060208201905081810360008301526200139b8162001359565b9050919050565b620013ad8162000c6d565b82525050565b620013be8162000cf8565b82525050565b6000604082019050620013db6000830185620013a2565b620013ea6020830184620013b3565b9392505050565b60008115159050919050565b6200140881620013f1565b81146200141457600080fd5b50565b6000815190506200142881620013fd565b92915050565b60006020828403121562001447576200144662000c43565b5b6000620014578482850162001417565b91505092915050565b7f4e487b7100000000000000000000000000000000000000000000000000000000600052601160045260246000fd5b60006200149c8262000cf8565b9150620014a98362000cf8565b9250828203905081811115620014c457620014c362001460565b5b92915050565b7f4e487b7100000000000000000000000000000000000000000000000000000000600052603260045260246000fd5b7f4e487b7100000000000000000000000000000000000000000000000000000000600052602260045260246000fd5b600060028204905060018216806200154157607f821691505b602082108103620015575762001556620014f9565b5b50919050565b60006200156a8262000d8f565b6200157681856200131f565b93506200158881856020860162000dab565b620015938162000dd7565b840191505092915050565b60006060820190508181036000830152620015ba81866200155d565b90508181036020830152620015d081856200155d565b9050620015e16040830184620013b3565b949350505050565b600062001600620015fa846200100f565b62000ff0565b9050828152602081018484840111156200161f576200161e62000f86565b5b6200162c84828562000dab565b509392505050565b600082601f8301126200164c576200164b62000f81565b5b81516200165e848260208601620015e9565b91505092915050565b60006020828403121562001680576200167f62000c43565b5b600082015167ffffffffffffffff811115620016a157620016a062000c48565b5b620016af8482850162001634565b91505092915050565b60008190508160005260206000209050919050565b60006020601f8301049050919050565b600082821b905092915050565b6000600883026200171c7fffffffffffffffffffffffffffffffffffffffffffffffffffffffffffffffff82620016dd565b620017288683620016dd565b95508019841693508086168417925050509392505050565b6000819050919050565b60006200176b620017656200175f8462000cf8565b62001740565b62000cf8565b9050919050565b6000819050919050565b62001787836200174a565b6200179f620017968262001772565b848454620016ea565b825550505050565b600090565b620017b6620017a7565b620017c38184846200177c565b505050565b5b81811015620017eb57620017df600082620017ac565b600181019050620017c9565b5050565b601f8211156200183a576200180481620016b8565b6200180f84620016cd565b810160208510156200181f578190505b620018376200182e85620016cd565b830182620017c8565b50505b505050565b600082821c905092915050565b60006200185f600019846008026200183f565b1980831691505092915050565b60006200187a83836200184c565b9150826002028217905092915050565b620018958262000d8f565b67ffffffffffffffff811115620018b157620018b062000f8b565b5b620018bd825462001528565b620018ca828285620017ef565b600060209050601f831160018114620019025760008415620018ed578287015190505b620018f985826200186c565b86555062001969565b601f1984166200191286620016b8565b60005b828110156200193c5784890151825560018201915060208501945060208101905062001915565b868310156200195c578489015162001958601f8916826200184c565b8355505b6001600288020188555050505b505050505050565b600082905092915050565b62001988838362001971565b67ffffffffffffffff811115620019a457620019a362000f8b565b5b620019b0825462001528565b620019bd828285620017ef565b6000601f831160018114620019f15760008415620019dc578287013590505b620019e885826200186c565b86555062001a58565b601f19841662001a0186620016b8565b60005b8281101562001a2b5784890135825560018201915060208501945060208101905062001a04565b8683101562001a4b578489013562001a47601f8916826200184c565b8355505b6001600288020188555050505b50505050505050565b7f4f6e6c7920746865206f776e65722063616e20636c6f736520616e2065706f6360008201527f6800000000000000000000000000000000000000000000000000000000000000602082015250565b600062001abf6021836200131f565b915062001acc8262001a61565b604082019050919050565b6000602082019050818103600083015262001af28162001ab0565b9050919050565b600080fd5b600080fd5b600080fd5b60008235600160600383360303811262001b275762001b2662001af9565b5b80830191505092915050565b6000808335600160200384360303811262001b535762001b5262001af9565b5b80840192508235915067ffffffffffffffff82111562001b785762001b7762001afe565b5b60208301925060208202360383131562001b975762001b9662001b03565b5b509250929050565b62001baa8162000c6d565b811462001bb657600080fd5b50565b60008135905062001bca8162001b9f565b92915050565b60006020828403121562001be95762001be862000c43565b5b600062001bf98482850162001bb9565b91505092915050565b6000808335600160200384360303811262001c225762001c2162001af9565b5b80840192508235915067ffffffffffffffff82111562001c475762001c4662001afe565b5b60208301925060408202360383131562001c665762001c6562001b03565b5b509250929050565b6000813562001c7d81620010d2565b80915050919050565b60008160001b9050919050565b60007fffffffffffffffffffffffffffffffffffffffffffffffffffffffffffffffff62001cc18462001c86565b9350801983169250808416831791505092915050565b62001ce2826200174a565b62001cf962001cf18262001772565b835462001c93565b8255505050565b60008101600083018062001d148162001c6e565b905062001d22818462001cd7565b50505060018101602083018062001d398162001c6e565b905062001d47818462001cd7565b5050505050565b62001d5a828262001d00565b505056fe60806040523480156200001157600080fd5b50604051620012d3380380620012d3833981810160405281019062000037919062000328565b826003908162000048919062000603565b5081600490816200005a919062000603565b506012600560006101000a81548160ff021916908360ff16021790555080600160003373ffffffffffffffffffffffffffffffffffffffff1673ffffffffffffffffffffffffffffffffffffffff1681526020019081526020016000206000828254620000c8919062000719565b9250508190555080600080828254620000e2919062000719565b925050819055503373ffffffffffffffffffffffffffffffffffffffff16600073ffffffffffffffffffffffffffffffffffffffff167fddf252ad1be2c89b69c2b068fc378daa952ba7f163c4a11628f55a4df523b3ef8360405162000149919062000765565b60405180910390a350505062000782565b6000604051905090565b600080fd5b600080fd5b600080fd5b600080fd5b6000601f19601f8301169050919050565b7f4e487b7100000000000000000000000000000000000000000000000000000000600052604160045260246000fd5b620001c38262000178565b810181811067ffffffffffffffff82111715620001e557620001e462000189565b5b80604052505050565b6000620001fa6200015a565b9050620002088282620001b8565b919050565b600067ffffffffffffffff8211156200022b576200022a62000189565b5b620002368262000178565b9050602081019050919050565b60005b838110156200026357808201518184015260208101905062000246565b60008484015250505050565b60006200028662000280846200020d565b620001ee565b905082815260208101848484011115620002a557620002a462000173565b5b620002b284828562000243565b509392505050565b600082601f830112620002d257620002d16200016e565b5b8151620002e48482602086016200026f565b91505092915050565b6000819050919050565b6200030281620002ed565b81146200030e57600080fd5b50565b6000815190506200032281620002f7565b92915050565b60008060006060848603121562000344576200034362000164565b5b600084015167ffffffffffffffff81111562000365576200036462000169565b5b6200037386828701620002ba565b935050602084015167ffffffffffffffff81111562000397576200039662000169565b5b620003a586828701620002ba565b9250506040620003b88682870162000311565b9150509250925092565b600081519050919050565b7f4e487b7100000000000000000000000000000000000000000000000000000000600052602260045260246000fd5b600060028204905060018216806200041557607f821691505b6020821081036200042b576200042a620003cd565b5b50919050565b60008190508160005260206000209050919050565b60006020601f8301049050919050565b600082821b905092915050565b600060088302620004957fffffffffffffffffffffffffffffffffffffffffffffffffffffffffffffffff8262000456565b620004a1868362000456565b95508019841693508086168417925050509392505050565b6000819050919050565b6000620004e4620004de620004d884620002ed565b620004b9565b620002ed565b9050919050565b6000819050919050565b6200050083620004c3565b620005186200050f82620004eb565b84845462000463565b825550505050565b600090565b6200052f62000520565b6200053c818484620004f5565b505050565b5b8181101562000564576200055860008262000525565b60018101905062000542565b5050565b601f821115620005b3576200057d8162000431565b620005888462000446565b8101602085101562000598578190505b620005b0620005a78562000446565b83018262000541565b50505b505050565b600082821c905092915050565b6000620005d860001984600802620005b8565b1980831691505092915050565b6000620005f38383620005c5565b9150826002028217905092915050565b6200060e82620003c2565b67ffffffffffffffff8111156200062a576200062962000189565b5b620006368254620003fc565b6200064382828562000568565b600060209050601f8311600181146200067b576000841562000666578287015190505b620006728582620005e5565b865550620006e2565b601f1984166200068b8662000431565b60005b82811015620006b5578489015182556001820191506020850194506020810190506200068e565b86831015620006d55784890151620006d1601f891682620005c5565b8355505b6001600288020188555050505b505050505050565b7f4e487b7100000000000000000000000000000000000000000000000000000000600052601160045260246000fd5b60006200072682620002ed565b91506200073383620002ed565b92508282019050808211156200074e576200074d620006ea565b5b92915050565b6200075f81620002ed565b82525050565b60006020820190506200077c600083018462000754565b92915050565b610b4180620007926000396000f3fe608060405234801561001057600080fd5b50600436106100935760003560e01c8063313ce56711610066578063313ce5671461013457806370a082311461015257806395d89b4114610182578063a9059cbb146101a0578063dd62ed3e146101d057610093565b806306fdde0314610098578063095ea7b3146100b657806318160ddd146100e657806323b872dd14610104575b600080fd5b6100a0610200565b6040516100ad91906107c2565b60405180910390f35b6100d060048036038101906100cb919061087d565b61028e565b6040516100dd91906108d8565b60405180910390f35b6100ee610380565b6040516100fb9190610902565b60405180910390f35b61011e6004803603810190610119919061091d565b610386565b60405161012b91906108d8565b60405180910390f35b61013c610537565b604051610149919061098c565b60405180910390f35b61016c600480360381019061016791906109a7565b61054a565b6040516101799190610902565b60405180910390f35b61018a610562565b60405161019791906107c2565b60405180910390f35b6101ba60048036038101906101b5919061087d565b6105f0565b6040516101c791906108d8565b60405180910390f35b6101ea60048036038101906101e591906109d4565b61070d565b6040516101f79190610902565b60405180910390f35b6003805461020d90610a43565b80601f016020809104026020016040519081016040528092919081815260200182805461023990610a43565b80156102865780601f1061025b57610100808354040283529160200191610286565b820191906000526020600020905b81548152906001019060200180831161026957829003601f168201915b505050505081565b600081600260003373ffffffffffffffffffffffffffffffffffffffff1673ffffffffffffffffffffffffffffffffffffffff16815260200190815260200160002060008573ffffffffffffffffffffffffffffffffffffffff1673ffffffffffffffffffffffffffffffffffffffff168152602001908152602001600020819055508273ffffffffffffffffffffffffffffffffffffffff163373ffffffffffffffffffffffffffffffffffffffff167f8c5be1e5ebec7d5bd14f71427d1e84f3dd0314c0f7b2291e5b200ac8c7c3b9258460405161036e9190610902565b60405180910390a36001905092915050565b60005481565b600081600260008673ffffffffffffffffffffffffffffffffffffffff1673ffffffffffffffffffffffffffffffffffffffff16815260200190815260200160002060003373ffffffffffffffffffffffffffffffffffffffff1673ffffffffffffffffffffffffffffffffffffffff16815260200190815260200160002060008282546104149190610aa3565b9250508190555081600160008673ffffffffffffffffffffffffffffffffffffffff1673ffffffffffffffffffffffffffffffffffffffff168152602001908152602001600020600082825461046a9190610aa3565b9250508190555081600160008573ffffffffffffffffffffffffffffffffffffffff1673ffffffffffffffffffffffffffffffffffffffff16815260200190815260200160002060008282546104c09190610ad7565b925050819055508273ffffffffffffffffffffffffffffffffffffffff168473ffffffffffffffffffffffffffffffffffffffff167fddf252ad1be2c89b69c2b068fc378daa952ba7f163c4a11628f55a4df523b3ef846040516105249190610902565b60405180910390a3600190509392505050565b600560009054906101000a900460ff1681565b60016020528060005260406000206000915090505481565b6004805461056f90610a43565b80601f016020809104026020016040519081016040528092919081815260200182805461059b90610a43565b80156105e85780601f106105bd576101008083540402835291602001916105e8565b820191906000526020600020905b8154815290600101906020018083116105cb57829003601f168201915b505050505081565b600081600160003373ffffffffffffffffffffffffffffffffffffffff1673ffffffffffffffffffffffffffffffffffffffff16815260200190815260200160002060008282546106419190610aa3565b9250508190555081600160008573ffffffffffffffffffffffffffffffffffffffff1673ffffffffffffffffffffffffffffffffffffffff16815260200190815260200160002060008282546106979190610ad7565b925050819055508273ffffffffffffffffffffffffffffffffffffffff163373ffffffffffffffffffffffffffffffffffffffff167fddf252ad1be2c89b69c2b068fc378daa952ba7f163c4a11628f55a4df523b3ef846040516106fb9190610902565b60405180910390a36001905092915050565b6002602052816000526040600020602052806000526040600020600091509150505481565b600081519050919050565b600082825260208201905092915050565b60005b8381101561076c578082015181840152602081019050610751565b60008484015250505050565b6000601f19601f8301169050919050565b600061079482610732565b61079e818561073d565b93506107ae81856020860161074e565b6107b781610778565b840191505092915050565b600060208201905081810360008301526107dc8184610789565b905092915050565b600080fd5b600073ffffffffffffffffffffffffffffffffffffffff82169050919050565b6000610814826107e9565b9050919050565b61082481610809565b811461082f57600080fd5b50565b6000813590506108418161081b565b92915050565b6000819050919050565b61085a81610847565b811461086557600080fd5b50565b60008135905061087781610851565b92915050565b60008060408385031215610894576108936107e4565b5b60006108a285828601610832565b92505060206108b385828601610868565b9150509250929050565b60008115159050919050565b6108d2816108bd565b82525050565b60006020820190506108ed60008301846108c9565b92915050565b6108fc81610847565b82525050565b600060208201905061091760008301846108f3565b92915050565b600080600060608486031215610936576109356107e4565b5b600061094486828701610832565b935050602061095586828701610832565b925050604061096686828701610868565b9150509250925092565b600060ff82169050919050565b61098681610970565b82525050565b60006020820190506109a1600083018461097d565b92915050565b6000602082840312156109bd576109bc6107e4565b5b60006109cb84828501610832565b91505092915050565b600080604083850312156109eb576109ea6107e4565b5b60006109f985828601610832565b9250506020610a0a85828601610832565b9150509250929050565b7f4e487b7100000000000000000000000000000000000000000000000000000000600052602260045260246000fd5b60006002820490506001821680610a5b57607f821691505b602082108103610a6e57610a6d610a14565b5b50919050565b7f4e487b7100000000000000000000000000000000000000000000000000000000600052601160045260246000fd5b6000610aae82610847565b9150610ab983610847565b9250828203905081811115610ad157610ad0610a74565b5b92915050565b6000610ae282610847565b9150610aed83610847565b9250828201905080821115610b0557610b04610a74565b5b9291505056fea26469706673582212200403747db97a86d693c42fb1456965baa8a496a14ada8bad9eabf28af9ed2e0064736f6c63430008180033a26469706673582212208b175af8798af516dcba730fb096921f5e10fa36dd20e55f0b04c1c8c30f5b8e64736f6c63430008180033",
  "linkReferences": {},
  "deployedLinkReferences": {}
}